:040000008031C02863
:100008007E14803100308600003087002E008F1E5D
:100018000E280F28BE2820005E08D63E86008701DD
:1000280022001908810001302000DE070030DF3D82
:1000380022009D1C2028212823281D121D1604306B
:1000480020005E065F04031D2A282B285A28210059
:1000580059082000E100210058082000E000033082
:1000680061066004031D39283A283F280630FB0042
:100078000030FC005A28023060060430031961067B
:10008800031D472848284D280C30FB000030FC0091
:100098005A2802306006053003196106031D5528E9
:1000A80056285A281A30FB000030FC005F08803AB6
:1000B800F0007C08803A7002031D64287B085E0209
:1000C800031C672868287B2806307B067C04031DF0
:1000D8006E286F287B282000DE01DF010130DC005C
:1000E8000030DD000130DA000030DB00BE282000DF
:1000F8005F08803AF0007C08803A7002031D862869
:100108007B085E02031C89288A289D280C307B0600
:100118007C04031D902891289D282000DE01DF0122
:100128000130DC000030DD000230DA000030DB0096
:10013800BE2820005F08803AF0007C08803A7002F0
:10014800031DA8287B085E02031CAB28AC28BE2828
:100158001A307B067C04031DB228B328BE28200071
:10016800DE01DF010130DC000030DD000330DA00A1
:100178000030DB007E1009008031C2288731FC275F
:100188008031FB008731FD278031FC00C8308400B6
:100198008E308500683086000030870006308E314A
:1001A800C22680310E30840087308500A03086005A
:1001B8000030870036308E31C22680317830840096
:1001C80087308500203086000130870032308E313C
:1001D800C2268031523084000030850016308E31BE
:1001E800BC268031D6308400003085001A308E312C
:1001F800BC2680317E10200082319F2A07303E00C5
:10020800C3000730200092001F3021009800FC3006
:100218009A051A1201309D00131593178F318B27F9
:10022800813121006508803AF90087307902031D81
:100238001F29D030640203182229232934290430C5
:100248008531E62581310330FA000830F90077302E
:10025800890B2C29F90B2C29FA0B2C2900009E2A32
:100268004830860001308700353084000030850032
:100278000A30F90016001A00F90B3E293530F10052
:100288000A30F2000030F3008731DB278131033078
:10029800FA007030F9005C30890B5029F90B5029AD
:1002A800FA0B502900320130873144278131720816
:1002B8002000C0007108BF00023087314427813117
:1002C80072082000C2007108C1000330873144273A
:1002D800813172082000C4007108C3000230840014
:1002E80090308500003FF900013FFA007A08420289
:1002F800031D802979084102031883298429AD291F
:100308000030840090308500003FF900013FFA007A
:1003180044087A02031D9229430879020318952993
:100328009629AD290230840090308500003FF900FD
:10033800013FFA007A084002031DA42979083F0208
:100348000318A729A829AD2903308531E62581316D
:1003580012290230840090308500003FF900013FE7
:10036800FA007A084202031DBB29790841020318E2
:10037800BE29BF29E8290030840090308500003F5D
:10038800F900013FFA0044087A02031DCD29430809
:1003980079020318D029D129E82900308400903047
:1003A8008500003FF900013FFA0040087A02031D6A
:1003B800DF293F0879020318E229E329E8290230F6
:1003C8008531E6258131122902308400903085007C
:1003D800003FF900013FFA007A084202031DF6299E
:1003E800790841020318F929FA29232A02308400DE
:1003F80090308500003FF900013FFA007A08440276
:10040800031D082A7908430203180B2A0C2A232AF9
:100418000030840090308500003FF900013FFA0069
:1004280040087A02031D1A2A3F08790203181D2A78
:100438001E2A232A02308531E6258131122900300F
:10044800840090308500003FF900013FFA0042081F
:100458007A02031D312A410879020318342A352A01
:100468005E2A0230840090308500003FF900013F89
:10047800FA007A084402031D432A79084302031844
:10048800462A472A5E2A0230840090308500003FC1
:10049800F900013FFA007A084002031D552A79083D
:1004A8003F020318582A592A5E2A01308531E62569
:1004B800813112290030840090308500003FF90016
:1004C800013FFA0042087A02031D6C2A41087902AA
:1004D80003186F2A702A992A00308400903085000A
:1004E800003FF900013FFA0044087A02031D7E2A02
:1004F800430879020318812A822A992A0230840043
:1005080090308500003FF900013FFA007A08400268
:10051800031D902A79083F020318932A942A992ADE
:1005280001308531E6258131122903308531E625F0
:100538008131122908002000D101203091003E00AD
:10054800B801200013133E004E1322009E161E12FF
:100558009D139D171D16200093163E00CE122200F3
:100568009F151E159C0144309B008B170B172E00FE
:10057800991610303E00A60015303D00CB008F3193
:10058800D927823120308600013087004730840027
:10059800003085000A302000C50016001A00C50B7F
:1005A800D12A20008C1AD92ADA2AE82A0F30960094
:1005B8008F312B2782318F318B27823120008C1E7F
:1005C800E62AE72AE22AE92A96015C085D0403196B
:1005D800EE2AEF2A512B5A035B04031DF42AF52A4D
:1005E800F82ADC01DD01512B02305A065B04031D99
:1005F800FE2AFF2A152BDC01DD01210060082000FE
:10060800E700210061082000E600670803190D2BA8
:100618000E2B102B1614112B16108F318B278231AD
:10062800512B03305A065B04031D1B2B1C2B512B2B
:10063800DC01DD01D630F9008331F7238231210056
:100648006B082000E50021006A082000E400210072
:1006580069082000E300210068082000E20021006A
:1006680065082000D900210064082000D800210076
:1006780067082000D700210066082000D600210066
:100688006D082000D50021006C082000D4008631B8
:10069800B62682318F311327823120005908803ADB
:1006A800C50087304502031D5B2B6D305802031CC3
:1006B8005E2B5F2B732B2000161515302000C6000B
:1006C8004B30C500BE30890B672BC50B672BC60B9B
:1006D800672B000081310221823120001611200091
:1006E8005708803AC50087304502031D7D2B6D30C1
:1006F8005602031C802B812BAA2B20005508803A18
:10070800C50085304502031D8B2BDD305402031CC8
:100718008E2B8F2BAA2B20005108031D942B952B71
:10072800AA2B161415302000C6004B30C500BE3069
:10073800890B9C2BC50B9C2BC60B9C2B0000843172
:10074800FE248231200016100130D1002000570805
:10075800803AC50087304502031DB42B6D30560220
:10076800031CB72BB82BE42B20005508803AC50092
:1007780085304502031DC22BDC3054020318C52BFB
:10078800C62BE42B20005108031DCB2BCC2BE42BCC
:10079800961415302000C6004B30C500BE30890BBA
:1007A800D32BC50BD32BC60BD32B00008731AA271D
:1007B80082318F31BC278231200096100130D10060
:1007C80020005708803AC50084304502031DEE2BEF
:1007D8004C3056020318F12BF22BD52A2000D101F8
:1007E800D52A8031C0282000B001B101AA01AB018F
:1007F800AC01AD013E308600013087002030840016
:10080800003085000A30FA0016001A00FA0B082C8E
:100818000530F1000030F2007908093E86008701B2
:100828007908083E840085010008183EF300FC3072
:10083800013DF40086315B26833172082000AF0049
:100848007108AE000530F1000030F20079080B3E67
:100858008600870179080A3E840085010008183E51
:10086800F300FC30013DF40086315B2683317208C9
:100878002000B1007108B0002F08803AFA008030DB
:100888007A02031D492C6E302E0203184C2C4D2C75
:100898005F2C20002F08803AFA0080307A02031D6E
:1008A800572C5B302E02031C5A2C5B2C5F2C20002B
:1008B800AA01AB01952C20002F08803AFA0080305D
:1008C8007A02031D692C6F302E02031C6C2C6D2CD0
:1008D800792C01302000AA000030AB002E089C3E85
:1008E800AE00FF302F3DAF00952C20002F08803A36
:1008F800FA0080307A02031D832C5A302E02031826
:10090800862C872C952C02302000AA000030AB00E2
:100918006430FA002E087A02AE002F090318890AFB
:10092800AF0020003108803AFA0080307A02031DB7
:100938009F2C6E3030020318A22CA32CB52C20005B
:100948003108803AFA0080307A02031DAD2C5B3002
:100958003002031CB02CB12CB52C2000AC01AD0129
:10096800EB2C20003108803AFA0080307A02031D0F
:10097800BF2C6F303002031CC22CC32CCF2C01308B
:100988002000AC000030AD0030089C3EB000FF30C5
:10099800313DB100EB2C20003108803AFA0080305C
:1009A8007A02031DD92C5A3030020318DC2CDD2CB6
:1009B800EB2C02302000AC000030AD006430FA00AF
:1009C80030087A02B00031090318890AB100200002
:1009D8002C08A6003008A7002A08A8002E08A9009D
:1009E8002030F1000A30F2000030F3008731DB27B5
:1009F800833108003E00B810200091140F30F20037
:100A080001308F31A32784318430F2002A308F31AE
:100A1800A3278431F2012B308F31A3278431F201CF
:100A2800F20A2C308F31A32784314930F2002D305F
:100A38008F31A32784312930F20011308F31A32759
:100A480084314030F20015308F31A32784310330D0
:100A5800F60014308E31F22684318030F2000A30EC
:100A68008F31A32784310730F2000D308F31A3274F
:100A780084312630F20009308F31A32784318E313A
:100A8800E52684310A308F31022784312000BB00EB
:100A9800B701B8015D2D200037082D3E860087017B
:100AA8008E31D5268431810001302000B70700300F
:100AB800B83D3808803AA00080302002031D662D1A
:100AC8003B083702031C692D6A2D4F2D0230200088
:100AD8003B06031D702D712D962D04302D06031D28
:100AE800762D772D962D2E08031D7B2D7C2D962D8A
:100AF8008030F2000A308F31A3278431F2010D30A3
:100B08008F31A32784319330F20009308F31A32726
:100B180084312030F20009308F31A32784318E319F
:100B2800E52684310A308F31022784312000BB004A
:100B3800B901BA01AD2D200039082D3E8600870184
:100B48008E31D5268431810001302000B90700306C
:100B5800BA3D3A08803A803C031DB42D39083B025F
:100B68000318B72DB82D9F2D20002F082E06A000A2
:100B780030082006A1002D082106A200220831060F
:100B8800031DC72DC82D022D343086000130870083
:100B980023308400003085000A30A00016001A00B7
:100BA800A00BD22D3008AB002F08AC002330F10089
:100BB8000A30F2000030F3008731DB27843120004F
:100BC800961408002000B400AA3086000030870080
:100BD80020308400003085000A30F70016001A0023
:100BE800F70BF22D2030F1000A30F2000030F3004C
:100BF8008731DB2785310330F8000830F70077307C
:100C0800890B042EF70B042EF80B042E0000A030DD
:100C18008600003087002A308400003085000A30C2
:100C2800F70016001A00F70B152E20003403031DD9
:100C38001E2E1F2E282E0130B0005030B100023079
:100C4800B2003230B300452E02303406031D2D2E7B
:100C58002E2E372E0230B0003230B1000130B200F3
:100C68005030B300452E03303406031D3C2E3D2E74
:100C7800452E0130B0003230B1000130B2003230C0
:100C8800B3002A30F1000A30F2000030F300873157
:100C9800DB2785310930F800EE30F700AF30890BDB
:100CA800532EF70B532EF80B532E00000800F601B5
:100CB800F21F5F2E602E672EF109F209F10A03195F
:100CC800F20A0130F600F41F6A2E6B2E722EF30919
:100CD800F409F30A0319F40A0130F606F701F801DA
:100CE800710872040319792E7A2EA72E0130F500A7
:100CF800842E0130F135F20D890B7E2E0130F50777
:100D0800F21F872E882E7D2E0130F735F80D890BBE
:100D1800892E72087402031D932E71087302031C36
:100D2800962E972E9C2E7108F3027208F43B7714C6
:100D38000130F236F10C890B9D2E0130F502031DAE
:100D4800A62EA72E882E76080319AB2EAC2EB12E10
:100D5800F709F809F70A0319F80A7808F20077087A
:100D6800F100080020006508803AF8008630780213
:100D7800031DC02E41306402031CC32EC42E0D2F48
:100D880020006308803AF80087307802031DCE2ED1
:100D980009306202031CD12ED22EDC2E20006708F7
:100DA800031DD72ED82E0D2F8F31732786310D2F87
:100DB80020006308803AF80085307802031DE62E8B
:100DC80015306202031CE92EEA2EFC2E200063086F
:100DD800803AF80086307802031DF42EA4306202AF
:100DE8000318F72EF82EFC2E8F31432786310D2F4E
:100DF80020006308803AF80080307802031D062F2F
:100E0800C83062020318092F0A2F0D2F8F315B2774
:100E180086310800FE3419340134063404340034B1
:100E28000034003400340034FE34193401340634FC
:100E3800043400340034003400340034FE341934EF
:100E48000334043403340034043411340134FE34DC
:100E5800193401340934013400340134FE341934AE
:100E68000134043400340034FE34193401340534B8
:100E780000340034FE3419340434093400340034A6
:100E8800F6007603031D492F4A2F4E2F0830210004
:100E98009E00612F02307606031D532F542F582FC2
:100EA800093021009E00612F03307606031D5D2F57
:100EB8005E2F612F0A3021009E000B30F300623054
:100EC800890B642FF30B642F0032210013141318BD
:100ED8006E2F6F2F6B2F0D08F5000C08F4007508A6
:100EE800F2007408F1000800FE34193401340634A5
:100EF800043400340034403400344034FE341934AF
:100F080001340A3404340034023400340034003428
:100F1800FE34193401340A34043400340134003402
:100F280000340034FE3419340134063404340034F7
:100F38000034403400344034FE341934013406346B
:100F48000434003400340034003400342000981194
:100F5800D201D301FF3023008C000F1CB42FB52F12
:100F6800B12F0C08F100F2017108F200F101200024
:100F780052087104F40053087204F5007408D20092
:100F88007508D300FF3023008C000F1CCC2FCD2F09
:100F9800C92F2000520823000C04F1002000530838
:100FA800F2007108D2007208D30098150800F50104
:100FB800F601ED2F22009E1CE22FE32FDE2F710891
:100FC80075078600870101089A000130F50700308F
:100FD800F63D7608803AF4007308803A7402031DDF
:100FE800F72F72087502031CFA2FFB2FDE2F08005B
:040FF8000A34003483
:101D7800640080010131890BBD2E0034FE00120081
:101D88001E00FE0BC32E0034FE341934023409340D
:101D980000340034FE308E31DC268E3123000C08EE
:101DA800080009308F3102278E31F40074080800CA
:101DB800F100710823008C000F1CE32EE42EE02EA6
:101DC80008000C30F20001308F31A3278E318030AB
:101DD800F6000D308E31F2268E310800F9007908B0
:101DE8008F3102278E31F70077087604F8007808DB
:101DF800F20079088F31A3278E310800F200200005
:101E080098137235FE3980388E31DC268F318E3149
:101E1800CE268F31F3002000981773080800C430CD
:101E280086000030870020308400003085000630AE
:101E3800F70016001A00F70B1D2F2030F1000630AE
:101E4800F2000030F3008731DB278F310800B4300F
:101E5800860000308700203084000030850009307B
:101E6800F70016001A00F70B352F2030F100093063
:101E7800F2000030F3008731DB278F310800BD30D6
:101E8800860000308700203084000030850007304D
:101E9800F70016001A00F70B4D2F2030F10007301D
:101EA800F2000030F3008731DB278F310800D03093
:101EB800860000308700203084000030850006301E
:101EC800F70016001A00F70B652F2030F1000630D6
:101ED800F2000030F3008731DB278F3108006830CB
:101EE80086000030870020308400003085000630EE
:101EF800F70016001A00F70B7D2F2030F10006308E
:101F0800F2000030F3008731DB278F310800CA3038
:101F180086000030870020308400003085000630BD
:101F2800F70016001A00F70B952F2030F100063045
:101F3800F2000030F3008731DB278F310800F4000E
:101F480074357E39F5002000981375088E31DC262B
:101F58008F3172088E31DC268F31200098170B30B4
:101F6800F3006230890BB62FF30BB62F003208004E
:101F78002A30860001308700203084000030850038
:101F88000A30F70016001A00F70BC62F2000520877
:101F9800A8005308A9002030F1000A30F2000030F0
:101FA800F3008731DB278F310800230090122000CF
:101FB80012163E0043120C303D00C600200092125B
:101FC8003E00C31215309D00200092113E00C3113F
:101FD80014309B00200093133E00CE132000981766
:101FE800230010120F178F171008F0390A389000C5
:101FF8009F308D009016080052340334393403346E
:020000040001F9
:0A000E008F3FFF3F9F3FFF3FFF3F82
:00000001FF
