:040000008031C02863
:100008007E14803100308600003087002E008F1E5D
:100018000E280F28BE2820005F08D63E86008701DC
:1000280022001908810001302000DF070030E03D80
:1000380022009D1C2028212823281D121D1604306B
:1000480020005F066004031D2A282B285A28210057
:1000580059082000E200210058082000E100033080
:1000680062066104031D39283A283F280630FB0040
:100078000030FC005A280230610604300319620679
:10008800031D472848284D280C30FB000030FC0091
:100098005A2802306106053003196206031D5528E7
:1000A80056285A281A30FB000030FC006008803AB5
:1000B800F0007C08803A7002031D64287B085F0208
:1000C800031C672868287B2806307B067C04031DF0
:1000D8006E286F287B282000DF01E0010130DD0059
:1000E8000030DE000130DB000030DC00BE282000DC
:1000F8006008803AF0007C08803A7002031D862868
:100108007B085F02031C89288A289D280C307B06FF
:100118007C04031D902891289D282000DF01E00120
:100128000130DD000030DE000230DB000030DC0092
:10013800BE2820006008803AF0007C08803A7002EF
:10014800031DA8287B085F02031CAB28AC28BE2827
:100158001A307B067C04031DB228B328BE28200071
:10016800DF01E0010130DD000030DE000330DB009C
:100178000030DC007E1009008031C2288731FE275C
:100188008031FB008731FF278031FC00B0308400CC
:100198008E308500693086000030870006308E3149
:1001A800AA2680312830840087308500A030860058
:1001B8000030870036308E31AA2680319230840094
:1001C80087308500203086000130870032308E313C
:1001D800AA268031533084000030850016308E31D5
:1001E800A4268031D6308400003085001A308E3144
:1001F800A42680317E10200082319F2A07303E00DD
:10020800C3000730200092001F3021009800FC3006
:100218009A051A1201309D00131593178F316A271A
:10022800813121006508803AF90087307902031D81
:100238001F29D030640203182229232934290430C5
:100248008631012681310330FA000830F900773011
:10025800890B2C29F90B2C29FA0B2C2900009E2A32
:100268004830860001308700353084000030850032
:100278000A30F90016001A00F90B3E293530F10052
:100288000A30F2000030F3008F31B8278131053091
:10029800FA000F30F900F130890B5029F90B502979
:1002A800FA0B50290000013087315E27813172082E
:1002B8002000C0007108BF00023087315E278131FD
:1002C80072082000C2007108C100033087315E2720
:1002D800813172082000C4007108C3000230840014
:1002E80090308500003FF900013FFA007A08420289
:1002F800031D802979084102031883298429AD291F
:100308000030840090308500003FF900013FFA007A
:1003180044087A02031D9229430879020318952993
:100328009629AD290230840090308500003FF900FD
:10033800013FFA007A084002031DA42979083F0208
:100348000318A729A829AD29033086310126813150
:1003580012290230840090308500003FF900013FE7
:10036800FA007A084202031DBB29790841020318E2
:10037800BE29BF29E8290030840090308500003F5D
:10038800F900013FFA0044087A02031DCD29430809
:1003980079020318D029D129E82900308400903047
:1003A8008500003FF900013FFA0040087A02031D6A
:1003B800DF293F0879020318E229E329E8290230F6
:1003C800863101268131122902308400903085005F
:1003D800003FF900013FFA007A084202031DF6299E
:1003E800790841020318F929FA29232A02308400DE
:1003F80090308500003FF900013FFA007A08440276
:10040800031D082A7908430203180B2A0C2A232AF9
:100418000030840090308500003FF900013FFA0069
:1004280040087A02031D1A2A3F08790203181D2A78
:100438001E2A232A023086310126813112290030F2
:10044800840090308500003FF900013FFA0042081F
:100458007A02031D312A410879020318342A352A01
:100468005E2A0230840090308500003FF900013F89
:10047800FA007A084402031D432A79084302031844
:10048800462A472A5E2A0230840090308500003FC1
:10049800F900013FFA007A084002031D552A79083D
:1004A8003F020318582A592A5E2A0130863101264C
:1004B800813112290030840090308500003FF90016
:1004C800013FFA0042087A02031D6C2A41087902AA
:1004D80003186F2A702A992A00308400903085000A
:1004E800003FF900013FFA0044087A02031D7E2A02
:1004F800430879020318812A822A992A0230840043
:1005080090308500003FF900013FFA007A08400268
:10051800031D902A79083F020318932A942A992ADE
:1005280001308631012681311229033086310126B6
:100538008131122908002000D201203091003E00AC
:10054800B801200013133E004E1322009E161E12FF
:100558009D139D171D16200093163E00CE122200F3
:100568009F151E159C0144309B008B170B172E00FE
:10057800991610303E00A60015303D00CB008F3193
:10058800D927823120308600013087004730840027
:10059800003085000A302000C50016001A00C50B7F
:1005A800D12A20008C1AD92ADA2AE82A0F30960094
:1005B8008F310A2782318F316A27823120008C1EC1
:1005C800E62AE72AE22AE92A96015D085E04031969
:1005D800EE2AEF2A512B5B035C04031DF42AF52A4B
:1005E800F82ADD01DE01512B02305B065C04031D95
:1005F800FE2AFF2A152BDD01DE01210060082000FC
:10060800E800210061082000E700680803190D2BA5
:100618000E2B102B1614112B16108F316A278231CE
:10062800512B03305B065C04031D1B2B1C2B512B29
:10063800DD01DE01D630F900843111248231210038
:100648006B082000E60021006A082000E500210070
:1006580069082000E400210068082000E300210068
:1006680065082000DA00210064082000D900210074
:1006780067082000D800210066082000D700210064
:100688006D082000D60021006C082000D5008631B6
:10069800D02682318E31F226823120005A08803AE3
:1006A800C50087304502031D5B2B6D305902031CC2
:1006B8005E2B5F2B732B2000161515302000C6000B
:1006C8004B30C500BE30890B672BC50B672BC60B9B
:1006D800672B000081310221823120001611200091
:1006E8005808803AC50087304502031D7D2B6D30C0
:1006F8005702031C802B812BAB2B20005608803A15
:10070800C50085304502031D8B2BDD305502031CC7
:100718008E2B8F2BAB2B20005208031D942B952B6F
:10072800AB2B161415302000C6004B30C500BE3068
:10073800890B9C2BC50B9C2BC60B9C2B0000853171
:10074800182582312000D10016100130D200200077
:100758005808803AC50087304502031DB52B6D3017
:100768005702031CB82BB92BFE2B20005608803AE1
:10077800C50085304502031DC32BDC305502031824
:10078800C62BC72BFE2B20005208031DCC2BCD2BCC
:10079800FE2B961415302000C6004B30C500BE3025
:1007A800890BD42BC50BD42BC60BD42B0000873157
:1007B800C42782318731C427823103302000C60024
:1007C8000830C5007730890BE72BC50BE72BC60B24
:1007D800E72B3730200053068F30031954060319CE
:1007E800F62BF72BDE2B8F319B27823120009610BA
:1007F8000130D20020005808803AC50084304502F4
:10080800031D082C4C30570203180B2C0C2CD52A2E
:100818002000D201D52A8031C0282000B001B101C2
:10082800AA01AB01AC01AD013E3086000130870062
:1008380020308400003085000A30FA0016001A00C3
:10084800FA0B222C0530F1000030F2007908093E3D
:10085800860087017908083E840085010008183E53
:10086800F300FC30013DF4008631752684317208AE
:100878002000AF007108AE000530F1000030F20032
:1008880079080B3E8600870179080A3E84008501B5
:100898000008183EF300FC30013DF400863175264F
:1008A800843172082000B1007108B0002F08803A26
:1008B800FA0080307A02031D632C6E302E02031872
:1008C800662C672C792C20002F08803AFA0080309B
:1008D8007A02031D712C5B302E02031C742C752CBC
:1008E800792C2000AA01AB01AF2C20002F08803AF8
:1008F800FA0080307A02031D832C6F302E02031C0D
:10090800862C872C932C01302000AA000030AB00E5
:100918002E089C3EAE00FF302F3DAF00AF2C2000CC
:100928002F08803AFA0080307A02031D9D2C5A3035
:100938002E020318A02CA12CAF2C02302000AA00F4
:100948000030AB006430FA002E087A02AE002F099E
:100958000318890AAF0020003108803AFA00803075
:100968007A02031DB92C6E3030020318BC2CBD2C42
:10097800CF2C20003108803AFA0080307A02031D1B
:10098800C72C5B303002031CCA2CCB2CCF2C200088
:10099800AC01AD01052D20003108803AFA00803005
:1009A8007A02031DD92C6F303002031CDC2CDD2C9D
:1009B800E92C01302000AC000030AD0030089C3E2E
:1009C800B000FF30313DB100052D20003108803ADC
:1009D800FA0080307A02031DF32C5A3030020318D3
:1009E800F62CF72C052D02302000AC000030AD00AD
:1009F8006430FA0030087A02B00031090318890A15
:100A0800B10020002C08A6003008A7002A08A8007A
:100A18002E08A9002030F1000A30F2000030F3005F
:100A28008F31B827843108003E00B8102000911497
:100A38000F30F20001308F31822785318430F20087
:100A48002A308F3182278531F2012B308F3182276E
:100A58008531F201F20A2C308F31822785314930F5
:100A6800F2002D308F31822785312930F200113084
:100A78008F31822785314030F20015308F3182273F
:100A880085310330F60014308E31D126853180301F
:100A9800F2000A308F31822785310730F2000D309D
:100AA8008F31822785312630F20009308F31822735
:100AB80085318E31C42685310A308E31E126853163
:100AC8002000BB00B701B801772D200037082D3E64
:100AD800860087018E31BD268531810001302000D6
:100AE800B7070030B83D3808803AA00080302002AF
:100AF800031D802D3B083702031C832D842D692D8F
:100B0800023020003B06031D8A2D8B2DB02D0430AA
:100B18002D06031D902D912DB02D2E08031D952D0A
:100B2800962DB02D8030F2000A308F318227853122
:100B3800F2010D308F31822785319330F200093070
:100B48008F31822785312030F20009308F3182279A
:100B580085318E31C42685310A308E31E1268531C2
:100B68002000BB00B901BA01C72D200039082D3E6D
:100B7800860087018E31BD26853181000130200035
:100B8800B9070030BA3D3A08803A803C031DCE2DA3
:100B980039083B020318D12DD22DB92D20002F087A
:100BA8002E06A00030082006A1002D082106A2006C
:100BB80022083106031DE12DE22D1C2D343086005C
:100BC8000130870023308400003085000A30A000FF
:100BD80016001A00A00BEC2D3008AB002F08AC0053
:100BE8002330F1000A30F2000030F3008F31B827CB
:100BF800853120009614310808002000B400AA307E
:100C080086000030870020308400003085000A30DC
:100C1800F70016001A00F70B0D2E2030F1000A30ED
:100C2800F2000030F3008F31B82786310330F80026
:100C38000830F7007730890B1F2EF70B1F2EF80BA3
:100C48001F2E0000A0308600003087002A30840064
:100C5800003085000A30F70016001A00F70B302E16
:100C680020003403031D392E3A2E432E0130B000E4
:100C78005F30B1000230B2003730B300602E02306E
:100C88003406031D482E492E522E0230B00037304C
:100C9800B1000130B2005F30B300602E033034067B
:100CA800031D572E582E602E0130B0002F30B10092
:100CB8000130B2002F30B3002A30F1000A30F200C0
:100CC8000030F3008F31B82786310B30F80026301A
:100CD800F7005E30890B6E2EF70B6E2EF80B6E2E1A
:100CE8000800F601F21F792E7A2E812EF109F209F9
:100CF800F10A0319F20A0130F600F41F842E852E3A
:100D08008C2EF309F409F30A0319F40A0130F606E4
:100D1800F701F801710872040319932E942EC12E5D
:100D28000130F5009E2E0130F135F20D890B982E19
:100D38000130F507F21FA12EA22E972E0130F735AC
:100D4800F80D890BA32E72087402031DAD2E7108CD
:100D58007302031CB02EB12EB62E7108F30272086E
:100D6800F43B77140130F236F10C890BB72E0130C1
:100D7800F502031DC02EC12EA22E76080319C52E1A
:100D8800C62ECB2EF709F809F70A0319F80A7808CE
:100D9800F2007708F100080020006608803AF800A1
:100DA80086307802031DDA2E41306502031CDD2EE1
:100DB800DE2E272F20006408803AF800873078025A
:100DC800031DE82E09306302031CEB2EEC2EF62ED1
:100DD80020006808031DF12EF22E272F8F3152278D
:100DE8008631272F20006408803AF8008530780281
:100DF800031D002F15306302031C032F042F162F29
:100E080020006408803AF80086307802031D0E2F0F
:100E1800A43063020318112F122F162F8F312227A7
:100E28008631272F20006408803AF8008030780245
:100E3800031D202FC83063020318232F242F272FC8
:100E48008F313A2786310800FE34193401340634CC
:100E5800043400340034003400340034FE341934CF
:100E680001340634043400340034003400340034CF
:100E7800FE34193403340434033400340434113494
:100E88000134FE3419340134093401340034013496
:100E9800FE3419340134043400340034FE34193477
:100EA8000134053400340034FE3419340434093470
:100EB80000340034F6007603031D632F642F682F77
:100EC800083021009E007B2F02307606031D6D2F0F
:100ED8006E2F722F093021009E007B2F033076067B
:100EE800031D772F782F7B2F0A3021009E000B30AF
:100EF800F3006230890B7E2FF30B7E2F0032210026
:100F080013141318882F892F852F0D08F5000C0846
:100F1800F4007508F2007408F1000800FE34193472
:100F2800013406340434003400344034003440348E
:100F3800FE34193401340A340434003402340034E1
:100F480000340034FE34193401340A3404340034D3
:100F58000134003400340034FE34193401340634CA
:100F6800043400340034403400344034FE3419343E
:100F780001340634043400340034003400340034BE
:100F880020009811D301D401FF3023008C000F1CDE
:100F9800CE2FCF2FCB2F0C08F100F2017108F200F1
:100FA800F101200053087104F40054087204F5009C
:100FB8007408D3007508D400FF3023008C000F1C80
:100FC800E62FE72FE32F2000530823000C04F1003D
:100FD80020005408F2007108D3007208D400981554
:100FE8000800F100710823008C000F1CFC2FFD2F56
:080FF800F92F08000A3400344F
:101D4800640080010131890BA52E0034FE001200C9
:101D58001E00FE0BAB2E0034FE3419340234093455
:101D680000340034FE308731F5278E3123000C080B
:101D7800080009308E31E1268E31F400740808001D
:101D88000C30F20001308F3182278E318030F6001E
:101D98000D308E31D1268E310800F90079088E3148
:101DA800E1268E31F70077087604F8007808F2000B
:101DB80079088F3182278E310800F20020009813AD
:101DC8007235FE3980388731F5278E318E31B62647
:101DD8008E31F3002000981773080800C43086007D
:101DE8000030870020308400003085000630F7007E
:101DF80016001A00F70BFC2E2030F1000630F20016
:101E08000030F3008F31B8278E310800B4308600D7
:101E18000030870020308400003085000930F7004A
:101E280016001A00F70B142F2030F1000930F200C9
:101E38000030F3008F31B8278F310800BD3086009D
:101E48000030870020308400003085000730F7001C
:101E580016001A00F70B2C2F2030F1000730F20083
:101E68000030F3008F31B8278F310800D03086005A
:101E78000030870020308400003085000630F700ED
:101E880016001A00F70B442F2030F1000630F2003C
:101E98000030F3008F31B8278F3108006930860091
:101EA8000030870020308400003085000630F700BD
:101EB80016001A00F70B5C2F2030F1000630F200F4
:101EC8000030F3008F31B8278F310800CA30860000
:101ED8000030870020308400003085000630F7008D
:101EE80016001A00F70B742F2030F1000630F200AC
:101EF8000030F3008F31B8278F310800F4007435B3
:101F08007E39F5002000981375088731F5278F3141
:101F180072088731F5278F31200098170B30F300AE
:101F28006230890B952FF30B952F003208002A3069
:101F380086000130870020308400003085000A3098
:101F4800F70016001A00F70BA52F20005308A80069
:101F58005408A9002030F1000A30F2000030F300E4
:101F68008F31B8278F310800F501F601CA2F2200FA
:101F78009E1CBF2FC02FBB2F7108750786008701D5
:101F880001089A000130F5070030F63D7608803ADE
:101F9800F4007308803A7402031DD42F7208750286
:101FA800031CD72FD82FBB2F080023009012200026
:101FB80012163E0043120C303D00C600200092125B
:101FC8003E00C31215309D00200092113E00C3113F
:101FD80014309B00200093133E00CE132000981766
:101FE800230010120F178F171008F0390A389000C5
:101FF8009F308D009016080052340334393403346E
:020000040001F9
:0A000E008F3FFF3F9F3FFF3FFF3F82
:00000001FF
