:08000000803102288731FD2F39
:100F0200FF3087319327873123000C080800F20055
:100F12007235FE39803887319327873187318127AF
:100F220087310800F100710823008C000F1C9A2FF2
:100F32009B2F972F0B30F0006230890B9E2FF00B06
:100F42009E2F00320800F3002000981373357E397B
:100F5200F400740887319327873172088731932709
:100F6200873120009813080023009A1220001216DD
:100F72003E0043120C303D00C600200092123E009B
:100F8200C31215309D00200092113E00C31114308F
:100F92009B00200093133E00CE13200098172300DD
:100FA20010120F138F171008F0390A3890009F3073
:100FB2008D0090163E00B812200091161030F200FB
:100FC20001308731A42787310330F6000830F5005D
:100FD2007730890BEA2FF50BEA2FF60BEA2F000088
:100FE20020008C1AF52FF62FF12F09308731882730
:0E0FF2008731F12F8031022820008731B52F82
:020000040001F9
:0A000E008F3FFF3F9F3FFF3FFF3F82
:00000001FF
