:100000008031C0280A3400347E14803100308600EC
:10001000003087002E008F1E0E280F28BE282000DB
:100020006008D63E86008701220019088100013051
:100030002000E0070030E13D22009D1C20282128FF
:1000400023281D121D160430200060066104031DC4
:100050002A282B285A28210059082000E3002100D3
:1000600058082000E200033063066204031D3928AB
:100070003A283F280630FB000030FC005A280230A6
:100080006206043003196306031D472848284D28DB
:100090000C30FB000030FC005A28023062060530AC
:1000A00003196306031D552856285A281A30FB00E9
:1000B0000030FC006108803AF0007C08803A700251
:1000C000031D64287B086002031C672868287B28BE
:1000D00006307B067C04031D6E286F287B282000D9
:1000E000E001E1010130DE000030DF000130DC0022
:1000F0000030DD00BE2820006108803AF0007C0856
:10010000803A7002031D86287B086002031C892840
:100110008A289D280C307B067C04031D902891289A
:100120009D282000E001E1010130DE000030DF0009
:100130000230DC000030DD00BE2820006108803A7B
:10014000F0007C08803A7002031DA8287B0860023A
:10015000031CAB28AC28BE281A307B067C04031D88
:10016000B228B328BE282000E001E1010130DE0002
:100170000030DF000330DC000030DD007E100900BD
:100180008031C228803102208031FB008031032081
:100190008031FC001F3084008F308500683086007D
:1001A0000030870006308F3119278031D33084002A
:1001B00086308500A03086000030870036308F31D1
:1001C000192780313D30840087308500203086003B
:1001D0000130870032308F3119278031523084004E
:1001E0000030850016308F3113278031D6308400DF
:1001F000003085001A308F31132780317E102000A7
:1002000082319F2A07303E00C30007302000920051
:100210001F3021009800FC309A051A1201309D0011
:10022000131593178731E827813121006508803A3B
:10023000F90087307902031D1F29D03064020318AA
:1002400022292329342904308531CC2581310330FA
:10025000FA000830F9007730890B2C29F90B2C298A
:10026000FA0B2C2900009E2A4830860001308700B6
:1002700035308400003085000A30F90016001A007D
:10028000F90B3E293530F1000A30F2000030F3005E
:100290008731C72781310530FA000F30F900F1307E
:1002A000890B5029F90B5029FA0B50290000013015
:1002B00087310927813172082000C0007108BF0012
:1002C000023087310927813172082000C20071088D
:1002D000C100033087310927813172082000C40032
:1002E0007108C3000230840090308500003FF9009F
:1002F000013FFA007A084202031D80297908410271
:10030000031883298429AD290030840090308500AA
:10031000003FF900013FFA0044087A02031D9229C8
:1003200043087902031895299629AD2902308400E3
:1003300090308500003FF900013FFA007A08400242
:10034000031DA42979083F020318A729A829AD296C
:1003500003308531CC258131122902308400903060
:100360008500003FF900013FFA007A084202031DB0
:10037000BB29790841020318BE29BF29E8290030AA
:10038000840090308500003FF900013FFA004408E6
:100390007A02031DCD29430879020318D029D129F7
:1003A000E8290030840090308500003FF900013FCB
:1003B000FA0040087A02031DDF293F08790203187A
:1003C000E229E329E82902308531CC25813112293F
:1003D0000230840090308500003FF900013FFA00B0
:1003E0007A084202031DF629790841020318F92907
:1003F000FA29232A0230840090308500003FF9005A
:10040000013FFA007A084402031D082A79084302D2
:1004100003180B2A0C2A232A003084009030850010
:10042000003FF900013FFA0040087A02031D1A2A32
:100430003F08790203181D2A1E2A232A023085311B
:10044000CC25813112290030840090308500003F96
:10045000F900013FFA0042087A02031D312A4108DF
:1004600079020318342A352A5E2A0230840090303B
:100470008500003FF900013FFA007A084402031D9D
:10048000432A790843020318462A472A5E2A023083
:10049000840090308500003FF900013FFA007A089F
:1004A0004002031D552A79083F020318582A592A89
:1004B0005E2A01308531CC2581311229003084003B
:1004C00090308500003FF900013FFA0042087A02AF
:1004D000031D6C2A4108790203186F2A702A992A91
:1004E0000030840090308500003FF900013FFA00A1
:1004F00044087A02031D7E2A430879020318812AE0
:10050000822A992A0230840090308500003FF90049
:10051000013FFA007A084002031D902A79083F0241
:100520000318932A942A992A01308531CC258131E8
:10053000122903308531CC25813112290800203061
:10054000200091003E00B801200013133E004E131E
:1005500022009E161E129D139D171D162000931635
:100560003E00CE1222009F151E159C0144309B00B8
:100570008B170B172E00991610303E00A600153071
:100580003D00CB008731A02782312030860001302A
:10059000870047308400003085000A302000C50005
:1005A00016001A00C50BD02A20008C1AD82AD92A86
:1005B000E72A0F3096008F31822782318731E82772
:1005C000823120008C1EE52AE62AE12AE82A9601DB
:1005D0005E085F040319ED2AEE2A502B5C035D04CC
:1005E000031DF32AF42AF72ADE01DF01502B023023
:1005F0005C065D04031DFD2AFE2A142BDE01DF01CB
:10060000210060082000E700210061082000E600CA
:10061000670803190C2B0D2B0F2B1614102B16101B
:100620008731E8278231502B03305C065D04031DBF
:100630001A2B1B2B502BDE01DF01D630F900833142
:10064000DC23823121006B082000D70021006A08DA
:100650002000D600210069082000E500210068087C
:100660002000E400210065082000DB002100640870
:100670002000DA00210067082000D9002100660868
:100680002000D80021006D082000D50021006C0852
:100690002000D40086319B2682318F316A27823137
:1006A00021006B082000D70021006A082000D60036
:1006B0005B08803AC50087304502031D612B6D3011
:1006C0005A02031C642B652B792B2000161515305C
:1006D0002000C6004B30C500BE30890B6D2BC50B0A
:1006E0006D2BC60B6D2B0000813102218231200061
:1006F000161120005908803AC50087304502031DB5
:10070000832B6D305802031C862B872B9D2B2000DA
:1007100016148431E32482312000D10015302000EA
:10072000C6004B30C500BE30890B942BC50B942BF3
:10073000C60B942B00002000161020005708803AAA
:10074000C50087304502031DA72B6D305602031CE0
:10075000AA2BAB2BD42A2000961487316F27823125
:1007600087316F27823103302000C6000830C50072
:100770007730890BB92BC50BB92BC60BB92B2000D1
:10078000520A031DC82B530A0319C72BC82BB02BC1
:100790008F31E327823129302000C6009630C50012
:1007A0007F30890BD12BC50BD12BC60BD12B200051
:1007B0009610D42A8031C0282000B001B101AA01CE
:1007C000AB01AC01AD013E30860001308700203026
:1007D0008400003085000A30FA0016001A00FA0B77
:1007E000ED2B0530F1000030F2007908093E86005B
:1007F00087017908083E840085010008183EF3004F
:10080000FC30013DF400863140268331720820001F
:10081000AF007108AE000530F1000030F200790839
:100820000B3E8600870179080A3E84008501000896
:10083000183EF300FC30013DF40086314026833140
:1008400072082000B1007108B0002F08803AFA0049
:1008500080307A02031D2E2C6E302E020318312CAC
:10086000322C442C20002F08803AFA0080307A0283
:10087000031D3C2C5B302E02031C3F2C402C442CCF
:100880002000AA01AB017A2C20002F08803AFA0040
:1008900080307A02031D4E2C6F302E02031C512C27
:1008A000522C5E2C01302000AA000030AB002E0834
:1008B0009C3EAE00FF302F3DAF007A2C20002F0869
:1008C000803AFA0080307A02031D682C5A302E02DA
:1008D00003186B2C6C2C7A2C02302000AA000030FC
:1008E000AB006430FA002E087A02AE002F0903181C
:1008F000890AAF0020003108803AFA0080307A027D
:10090000031D842C6E3030020318872C882C9A2CFF
:1009100020003108803AFA0080307A02031D922CC0
:100920005B303002031C952C962C9A2C2000AC01D5
:10093000AD01D02C20003108803AFA0080307A02D4
:10094000031DA42C6F303002031CA72CA82CB42C40
:1009500001302000AC000030AD0030089C3EB000FB
:10096000FF30313DB100D02C20003108803AFA0030
:1009700080307A02031DBE2C5A3030020318C12C7D
:10098000C22CD02C02302000AC000030AD0064300E
:10099000FA0030087A02B00031090318890AB10060
:1009A00020002C08A6003008A7002A08A8002E085E
:1009B000A9002030F1000A30F2000030F300873146
:1009C000C727833108003E00B810200091140F3073
:1009D000F20001308F31CA2784318430F2002A308E
:1009E0008F31CA278431F2012B308F31CA278431ED
:1009F000F201F20A2C308F31CA2784314930F200DB
:100A00002D308F31CA2784312930F20011308F31D7
:100A1000CA2784314030F20015308F31CA27843123
:100A20000330F60014308F31492784318030F200D2
:100A30000A308F31CA2784310730F2000D308F31F0
:100A4000CA2784312630F20009308F31CA27843119
:100A50008F313C2784310A308F315927843120006F
:100A6000BB00B701B801422D200037082D3E86009B
:100A700087018F312C278431810001302000B70796
:100A80000030B83D3808803AA00080302002031DB5
:100A90004B2D3B083702031C4E2D4F2D342D0230B9
:100AA00020003B06031D552D562D7B2D04302D06B1
:100AB000031D5B2D5C2D7B2D2E08031D602D612DEC
:100AC0007B2D8030F2000A308F31CA278431F20149
:100AD0000D308F31CA2784319330F20009308F31C5
:100AE000CA2784312030F20009308F31CA2784317F
:100AF0008F313C2784310A308F31592784312000CF
:100B0000BB00B901BA01922D200039082D3E8600A4
:100B100087018F312C278431810001302000B907F3
:100B20000030BA3D3A08803A803C031D992D3908BF
:100B30003B0203189C2D9D2D842D20002F082E068E
:100B4000A00030082006A1002D082106A2002208DE
:100B50003106031DAC2DAD2DE72C3430860001305D
:100B6000870023308400003085000A30A000160082
:100B70001A00A00BB72D3008AB002F08AC002330B3
:100B8000F1000A30F2000030F3008731C7278431CA
:100B900020009614310808002000B400AA30860016
:100BA0000030870020308400003085000A30F700D4
:100BB00016001A00F70BD82D2030F1000A30F20091
:100BC0000030F3008731C72785310330F800083043
:100BD000F7007730890BEA2DF70BEA2DF80BEA2D99
:100BE0000000A0308600003087002A3084000030EA
:100BF00085000A30F70016001A00F70BFB2D2000C5
:100C00003403031D042E052E0E2E0130B0005F307C
:100C1000B1000230B2003730B3002B2E0230340660
:100C2000031D132E142E1D2E0230B0003730B100DC
:100C30000130B2005F30B3002B2E03303406031DA9
:100C4000222E232E2B2E0130B0002F30B100013088
:100C5000B2002F30B3002A30F1000A30F200003029
:100C6000F3008731C72785310B30F8002630F700B5
:100C70005E30890B392EF70B392EF80B392E080010
:100C8000F601F21F442E452E4C2EF109F209F10A0D
:100C90000319F20A0130F600F41F4F2E502E572E82
:100CA000F309F409F30A0319F40A0130F606F7010F
:100CB000F8017108720403195E2E5F2E8C2E01302C
:100CC000F500692E0130F135F20D890B632E0130EC
:100CD000F507F21F6C2E6D2E622E0130F735F80DE0
:100CE000890B6E2E72087402031D782E7108730230
:100CF000031C7B2E7C2E812E7108F3027208F43BBC
:100D000077140130F236F10C890B822E0130F50296
:100D1000031D8B2E8C2E6D2E76080319902E912E8E
:100D2000962EF709F809F70A0319F80A7808F2006D
:100D30007708F100080020006508803AF800873045
:100D40007802031DA52E09306402031CA82EA92ECB
:100D5000B32E20006708031DAE2EAF2ED22E8F318A
:100D6000B2278631D22E20006508803AF8008530FF
:100D70007802031DBD2E15306402031CC02EC12E47
:100D8000D22E20006508803AF80086307802031DD4
:100D9000CB2EA43064020318CE2ECF2ED22E8F314C
:100DA0009A2786310800FE3419340134063404349D
:100DB00000340034003400340034FE34193401347B
:100DC0000634043400340034003400340034FE347B
:100DD000193403340434033400340434113401343A
:100DE000FE34193401340934013400340134FE3442
:100DF00019340134043400340034FE34193401341D
:100E0000053400340034FE34193404340934003419
:100E10000034F6007603031D0E2F0F2F132F08301A
:100E200021009E00262F02307606031D182F192F51
:100E30001D2F093021009E00262F03307606031D4A
:100E4000222F232F262F0A3021009E000B30F30083
:100E50006230890B292FF30B292F00322100131444
:100E60001318332F342F302F0D08F5000C08F40021
:100E70007508F2007408F1000800FE3419340134DA
:100E80000634043400340034403400344034FE343A
:100E9000193401340A340434003402340034003488
:100EA0000034FE34193401340A340434003401347B
:100EB000003400340034FE34193401340634043470
:100EC00000340034403400344034FE3419340134EA
:100ED000063404340034003400340034003420007C
:100EE0009811D201D301FF3023008C000F1C792F01
:100EF0007A2F762F0C08F100F2017108F200F1014F
:100F0000200052087104F40053087204F5007408BC
:100F1000D2007508D300FF3023008C000F1C912FE6
:100F2000922F8E2F2000520823000C04F100200085
:100F30005308F2007108D2007208D3009815080017
:100F400023009012200012163E0043120C303D0088
:100F5000C600200092123E00C31215309D002000F2
:100F600092113E00C31114309B00200093133E00E9
:100F7000CE1320009817230010120F178F17100898
:100F8000F0390A3890009F308D0090160800F50166
:100F9000F601D92F22009E1CCE2FCF2FCA2F710809
:100FA00075078600870101089A000130F5070030B7
:100FB000F63D7608803AF4007308803A7402031D07
:100FC000E32F72087502031CE62FE72FCA2F0800D3
:100FD000CA30860000308700203084000030850051
:100FE0000630F70016001A00F70BF22F2030F10040
:100FF0000630F2000030F3008731C7278731080040
:101E2600640080010131890B142F0034FE0012007A
:101E36001E00FE0B1A2F0034FE3419340234093406
:101E460000340034FE308F3133278F3123000C08E5
:101E5600080009308F3159278F31F40074080800C3
:101E6600F100710823008C000F1C3A2F3B2F372FEF
:101E760008000C30F20001308F31CA278F318030D4
:101E8600F6000D308F3149278F310800F9007908A7
:101E96008F3159278F31F70077087604F8007808D4
:101EA600F20079088F31CA278F310800F20020002E
:101EB60098137235FE3980388F3133278F318F3141
:101EC60025278F31F3002000981773080800C430C7
:101ED6008600003087002030840000308500063000
:101EE600F70016001A00F70B742F2030F1000630A9
:101EF600F2000030F3008731C7278F310800B43075
:101F060086000030870020308400003085000930CC
:101F1600F70016001A00F70B8C2F2030F10009305D
:101F2600F2000030F3008731C7278F310800BD303B
:101F3600860000308700203084000030850007309E
:101F4600F70016001A00F70BA42F2030F100073017
:101F5600F2000030F3008731C7278F310800683060
:101F6600860000308700203084000030850006306F
:101F7600F70016001A00F70BBC2F2030F1000630D0
:101F8600F2000030F3008731C7278F310800F400D4
:101F960074357E39F5002000981375088F31332784
:101FA6008F3172088F3133278F31200098170B300D
:101FB600F3006230890BDD2FF30BDD2F00320800B2
:101FC6002A308600013087002030840000308500EA
:101FD6000A30F70016001A00F70BED2F2000520802
:101FE600A8005308A9002030F1000A30F2000030A2
:101FF600F3008731C7278F31080052340334393450
:022006000334A1
:020000040001F9
:0A000E008F3FFF3F9F3FFF3FFF3F82
:00000001FF
