:08000000803102288731FD2F39
:100D4400FE308631B026863123000C0808000930B5
:100D54008631C9268631F30073080800F000700854
:100D640023008C000F1CB72EB82EB42E0800F800F8
:100D740078088631C9268631F60076087504F700AE
:100D84007708F10078088631DA2686310800F10008
:100D9400200098137135FE3980388631B0268631AB
:100DA4008631A2268631F2002000981772080800C6
:100DB400F30073357E39F4002000981374088631EB
:100DC400B026863171088631B02686312000981706
:100DD4000B30F2006230890BED2EF20BED2E003257
:100DE400080023009012200012163E0043120C301B
:100DF4003D00C600200092123E00C31215309D0033
:100E0400200092113E00C31114309B002000931364
:100E14003E00CE1320009817230010120F178F17CF
:100E24001008F0390A3890009F308D0090163E006B
:100E3400B812200091160F30F10001308631DA2605
:100E440086318430F1002A308631DA268631F10188
:100E54002B308631DA268631F101F10A2C308631C5
:100E6400DA2686314930F1002D308631DA26863192
:100E74002930F10011308631DA2686314030F10014
:100E840015308631DA2686310330F5001430863188
:100E9400B92686310330FA000830F9007730890B1F
:100EA400512FF90B512FFA0B512F00008030F10014
:100EB4000A308631DA2686310730F1000D3086316A
:100EC400DA2686312630F10009308631DA26863179
:100ED4000C30F10001308631DA2686318030F5009D
:100EE4000D308631B92686310A308631C9268631DD
:100EF400F900FA0179082000AC007A08AD00AE01CF
:100F0400AF01922F20002E08203E860087018631F3
:100F1400A9268631810001302000AE070030AF3DA4
:100F24002D08803AF9002F08803A7902031D9C2F7E
:100F34002E082C0203189F2FA02F842F06308631F1
:100F4400C92686312000AA000C308631C926863194
:100F54002000AB009330F10009308631DA26863167
:100F64002030F10009308631DA2686310C30F10068
:100F740001308631DA2686318030F1000D30863139
:100F8400DA2686310C30F10001308631DA268631DA
:100F94008030F1000D308631DA2686310A30863110
:100FA400C9268631F900FA0179082000AC007A08D4
:100FB400AD00B001B101EC2F20003008203E8600C6
:100FC40087018631A9268631810001302000B007CF
:100FD4000030B13D2D08803AF9003108803A790299
:100FE400031DF62F30082C020318F92FFA2FDE2FD9
:0C0FF400FA2F8031022820008631F32EF5
:020000040001F9
:0A000E008F3FFF3F9F3FFF3FFF3F82
:00000001FF
