:040000008031C32860
:100008007E1480312E008F1E0A280B28C12820005C
:100018006508A03E8600870122001908810001308A
:100028002000E5070030E63D22009D1C1C281D2805
:100038001F281D121D160430200065066604031DC6
:10004800262827285C2821002308F000F1017008E1
:10005800F100F001220870072000E7000030713D30
:10006800E800033068066704031D3B283C28412844
:100078000630F9000030FA005C28023067060430C8
:1000880003196806031D49284A284F280C30F9002F
:100098000030FA005C28023067060530031968064C
:1000A800031D572858285C281A30F9000030FA0038
:1000B8006608803AF0007A08803A7002031D6628C4
:1000C80079086502031C69286A287D2806307906A4
:1000D8007A04031D702871287D282000E501E601B7
:1000E8000130E3000030E4000130E1000030E200BC
:1000F800C12820006608803AF0007A08803A700229
:10010800031D882879086502031C8B288C289F28E2
:100118000C3079067A04031D922893289F28200022
:10012800E501E6010130E3000030E4000230E100BF
:100138000030E200C12820006608803AF0007A0802
:10014800803A7002031DAA2879086502031CAD28AD
:10015800AE28C1281A3079067A04031DB428B528B8
:10016800C1282000E501E6010130E3000030E40089
:100178000330E1000030E200C1287E100900803120
:10018800C528853155258031F900853156258031BE
:10019800FA00EB308400843085002030860000307F
:1001A800870024308531492580315F308400003054
:1001B80085000A3085314F258031A0308400003019
:1001C80085001A3085314F2580317E10200083311B
:1001D800802B07303E00C3000730200092001F30FC
:1001E80021009800FC309A051A1201309D00131561
:1001F80093175930840085308500003F2000D000D7
:10020800013FD10001308431BF24803120005108E2
:100218007402031D112950087302031814291529A3
:10022800482903308431BF24803157308400853019
:100238008500003F2000D000013FD1007408510222
:10024800031D28297308500203182B292C29482933
:100258005930840085308500003FD000013FD1002F
:1002680002308431BF248031200051087402031DFC
:100278003F295008730203184229432948290330AB
:1002880084317A248031742A59308400853085007D
:10029800003FD000013FD10001308431BF248031BC
:1002A800200051087402031D5B29500873020318CB
:1002B8005E295F29922903308431BF248031573069
:1002C800840085308500003F2000D000013FD10028
:1002D80074085102031D7229730850020318752906
:1002E8007629922902308431BF2480315730840026
:1002F80085308500003F2000D000013FD100740800
:100308005102031D89297308500203188C298D296D
:100318009229023084317A248031742A5930840039
:1003280085308500003FD000013FD1000130843185
:10033800BF248031200051087402031DA5295008EC
:1003480073020318A829A929DC29593084008530AB
:100358008500003FD000013FD10003308431BF2425
:100368008031200051087402031DBC295008730213
:100378000318BF29C029DC2902308431BF24803109
:100388005730840085308500003F2000D000013FB1
:10039800D10074085102031DD329730850020318B1
:1003A800D629D729DC29023084317A248031742A6D
:1003B80001308431BF248031573084008530850076
:1003C800003F2000D000013FD10074085102031DF6
:1003D800EF29730850020318F229F329262A593005
:1003E800840085308500003FD000013FD1000330F4
:1003F8008431BF248031200051087402031D062A6D
:10040800500873020318092A0A2A262A5930840038
:1004180085308500003FD000013FD1000230843193
:10042800BF248031200051087402031D1D2A500882
:1004380073020318202A212A262A013084317A24BB
:100448008031742A01308431BF24803157308400D0
:1004580085308500003F2000D000013FD10074089E
:100468005102031D392A7308500203183C2A3D2AF9
:10047800702A03308431BF2480315730840085309E
:100488008500003F2000D000013FD10074085102D0
:10049800031D502A730850020318532A542A702A3D
:1004A8005930840085308500003FD000013FD100DD
:1004B80002308431BF248031200051087402031DAA
:1004C800672A5008730203186A2A6B2A702A0130B7
:1004D80084317A248031742A043084317A2480313A
:1004E800853130258031FD2808002000DA01DB0144
:1004F800D401D501D601D7013430860000308700F9
:100508004A308400003085000A30C90016001A00FD
:10051800C90B8A2A0530F3000030F4004808093E68
:10052800860087014808083E840085010008183EB7
:10053800F500FC30013DF60084311E248231740838
:100548002000D9007308D8000530F3000030F4000B
:1005580048080B3E8600870148080A3E840085014A
:100568000008183EF500FC30013DF60084311E24D9
:10057800823174082000DB007308DA005908803AD9
:10058800C90080304902031DCB2A6E305802031877
:10059800CE2ACF2AE12A20005908803AC9008030A3
:1005A8004902031DD92A5B305802031CDC2ADD2AC4
:1005B800E12A2000D401D501172B20005908803AE0
:1005C800C90080304902031DEB2A6F305802031C12
:1005D800EE2AEF2AFB2A01302000D4000030D50093
:1005E80058089C3ED800FF30593DD900172B2000F1
:1005F8005908803AC90080304902031D052B5A303A
:1006080058020318082B092B172B02302000D4009E
:100618000030D5006430C90058084902D80059098B
:100628000318890AD90020005B08803AC900803085
:100638004902031D212B6E305A020318242B252B47
:10064800372B20005B08803AC90080304902031D1F
:100658002F2B5B305A02031C322B332B372B2000F5
:10066800D601D7016D2B20005B08803AC900803085
:100678004902031D412B6F305A02031C442B452BA2
:10068800512B01302000D6000030D7005A089C3E7C
:10069800DA00FF305B3DDB006D2B20005B08803A01
:1006A800C90080304902031D5B2B5A305A020318D7
:1006B8005E2B5F2B6D2B02302000D6000030D70058
:1006C8006430C9005A084902DA005B090318890A2C
:1006D800DB0020005608D0005A08D1005408D20088
:1006E8005808D3004A30F3000A30F4000030F5000F
:1006F80085310F25823108002030200091003E000E
:10070800B80122009E161E129D171D162000931672
:100718003E00CE1222009F151E159C0144309B00FE
:100728008B170B172E00991610303E00A6001530B7
:100738003D00CB00200011113E0038112A30860000
:1007480000308700BA308400003085000A3020006D
:10075800DC0016001A00DC0BAD2B8C1AB42BB52B61
:10076800C02B0F30960085313025833120008C1E38
:10077800BE2BBF2BBA2BC12B960163086404031947
:10078800C62BC72BEA2B61036204031DCC2BCD2B90
:10079800D02BE301E401EA2B023061066204031D59
:1007A800D62BD72BD82BCD2B033061066204031D23
:1007B800DE2BDF2BEA2BE301E401A030C8008231F5
:1007C80079228331853130258331EA2B85313025F3
:1007D8008331210030082000DC00DD015C08DD00E9
:1007E800DC0121002F0820005C07DF005D080318EA
:1007F8005D0AE000D0305F06073003196006031D6C
:10080800062C072CB12B161529302000DD00963058
:10081800DC007F30890B0E2CDC0B0E2CDD0B0E2C34
:1008280020005F088031ED20833120001611B12BA4
:100838008031C3282000C501F41F232C242C2B2C25
:10084800F309F409F30A0319F40A0130C500F61F85
:100858002E2C2F2C362CF509F609F50A0319F60A61
:100868000130C506C601C7017308740403193D2C7D
:100878003E2C6B2C0130C400482C0130F335F40DAC
:10088800890B422C0130C407F41F4B2C4C2C412CF3
:100898000130C635C70D890B4D2C74087602031D2F
:1008A800572C73087502031C5A2C5B2C602C730898
:1008B800F5027408F63B46140130F436F30C890B44
:1008C800612C0130C402031D6A2C6B2C4C2C45088A
:1008D80003196F2C702C752CC609C709C60A031991
:1008E800C70A4708F4004608F30008002000CF00B4
:1008F80020308600003087004530840000308500B5
:100908000A30C40016001A00C40B862C4F03031DBE
:100918008E2C8F2C982C0130CB003230CC0001303B
:10092800CD000A30CE00B52C02304F06031D9D2C99
:100938009E2CA72C0130CB000A30CC000130CD0012
:100948003230CE00B52C03304F06031DAC2CAD2C35
:10095800B52C0130CB003230CC000130CD00323024
:10096800CE004530F3000A30F4000030F500853140
:100978000F2584310800F7007703031DC42CC52C0C
:10098800C92C083021009E00DC2C02307706031D9C
:10099800CE2CCF2CD32C093021009E00DC2C033028
:1009A8007706031DD82CD92CDC2C0A3021009E0098
:1009B800210013141318E12CE22CDE2C0D08F6008C
:1009C8000C08F5007608F4007508F3000800FE34FA
:1009D800193401340634043400340034003400344B
:1009E8000034FE341934013406340434003400343D
:1009F800403400344034FE341934013406340434AD
:100A080000340034403400344034FE3419340134A6
:100A1800053400340034F701F801212D22009E1C12
:100A2800162D172D122D73087707860087010108E8
:100A38009A000130F7070030F83D7808803AF60050
:100A48007508803A7602031D2B2D74087702031C63
:100A58002E2D2F2D122D08003E30860000308700E5
:100A6800453084000030850006302000C4001600A0
:100A78001A00C40B3B2D4530F3000630F40000305B
:100A8800F50085310F2585310800FE0012001E0093
:100A9800FE0B4A2D0034640080010131890B502D72
:0E0AA80000340A34003452340334583402341B
:020000040001F9
:0A000E008F3FFF3F9F3FFF3FFF3F82
:00000001FF
