:040000008031C02863
:100008007E14803100308600003087002E008F1E5D
:100018000E280F28BE2820005E08D63E86008701DD
:1000280022001908810001302000DE070030DF3D82
:1000380022009D1C2028212823281D121D1604306B
:1000480020005E065F04031D2A282B285A28210059
:1000580059082000E100210058082000E000033082
:1000680061066004031D39283A283F280630FB0042
:100078000030FC005A28023060060430031961067B
:10008800031D472848284D280C30FB000030FC0091
:100098005A2802306006053003196106031D5528E9
:1000A80056285A281A30FB000030FC005F08803AB6
:1000B800F0007C08803A7002031D64287B085E0209
:1000C800031C672868287B2806307B067C04031DF0
:1000D8006E286F287B282000DE01DF010130DC005C
:1000E8000030DD000130DA000030DB00BE282000DF
:1000F8005F08803AF0007C08803A7002031D862869
:100108007B085E02031C89288A289D280C307B0600
:100118007C04031D902891289D282000DE01DF0122
:100128000130DC000030DD000230DA000030DB0096
:10013800BE2820005F08803AF0007C08803A7002F0
:10014800031DA8287B085E02031CAB28AC28BE2828
:100158001A307B067C04031DB228B328BE28200071
:10016800DE01DF010130DC000030DD000330DA00A1
:100178000030DB007E1009008031C2288731FE275D
:100188008031FB008731FF278031FC00C4308400B8
:100198008E308500683086000030870006308E314A
:1001A800BE2680311430840087308500A030860058
:1001B8000030870036308E31BE2680317E30840094
:1001C80087308500203086000130870032308E313C
:1001D800BE268031523084000030850016308E31C2
:1001E800B8268031D6308400003085001A308E3130
:1001F800B82680317E10200082319F2A07303E00C9
:10020800C3000730200092001F3021009800FC3006
:100218009A051A1201309D00131593178F318727FD
:10022800813121006508803AF90087307902031D81
:100238001F29D030640203182229232934290430C5
:100248008531EC2581310330FA000830F900773028
:10025800890B2C29F90B2C29FA0B2C2900009E2A32
:100268004830860001308700353084000030850032
:100278000A30F90016001A00F90B3E293530F10052
:100288000A30F2000030F3008F31B8278131033093
:10029800FA007030F9005C30890B5029F90B5029AD
:1002A800FA0B50290032013087314A278131720810
:1002B8002000C0007108BF00023087314A27813111
:1002C80072082000C2007108C100033087314A2734
:1002D800813172082000C4007108C3000230840014
:1002E80090308500003FF900013FFA007A08420289
:1002F800031D802979084102031883298429AD291F
:100308000030840090308500003FF900013FFA007A
:1003180044087A02031D9229430879020318952993
:100328009629AD290230840090308500003FF900FD
:10033800013FFA007A084002031DA42979083F0208
:100348000318A729A829AD2903308531EC25813167
:1003580012290230840090308500003FF900013FE7
:10036800FA007A084202031DBB29790841020318E2
:10037800BE29BF29E8290030840090308500003F5D
:10038800F900013FFA0044087A02031DCD29430809
:1003980079020318D029D129E82900308400903047
:1003A8008500003FF900013FFA0040087A02031D6A
:1003B800DF293F0879020318E229E329E8290230F6
:1003C8008531EC2581311229023084009030850076
:1003D800003FF900013FFA007A084202031DF6299E
:1003E800790841020318F929FA29232A02308400DE
:1003F80090308500003FF900013FFA007A08440276
:10040800031D082A7908430203180B2A0C2A232AF9
:100418000030840090308500003FF900013FFA0069
:1004280040087A02031D1A2A3F08790203181D2A78
:100438001E2A232A02308531EC2581311229003009
:10044800840090308500003FF900013FFA0042081F
:100458007A02031D312A410879020318342A352A01
:100468005E2A0230840090308500003FF900013F89
:10047800FA007A084402031D432A79084302031844
:10048800462A472A5E2A0230840090308500003FC1
:10049800F900013FFA007A084002031D552A79083D
:1004A8003F020318582A592A5E2A01308531EC2563
:1004B800813112290030840090308500003FF90016
:1004C800013FFA0042087A02031D6C2A41087902AA
:1004D80003186F2A702A992A00308400903085000A
:1004E800003FF900013FFA0044087A02031D7E2A02
:1004F800430879020318812A822A992A0230840043
:1005080090308500003FF900013FFA007A08400268
:10051800031D902A79083F020318932A942A992ADE
:1005280001308531EC258131122903308531EC25E4
:100538008131122908002000D101203091003E00AD
:10054800B801200013133E004E1322009E161E12FF
:100558009D139D171D16200093163E00CE122200F3
:100568009F151E159C0144309B008B170B172E00FE
:10057800991610303E00A60015303D00CB008F3193
:10058800D927823120308600013087004730840027
:10059800003085000A302000C50016001A00C50B7F
:1005A800D12A20008C1AD92ADA2AEE2A0F3096008E
:1005B8008F31272782318F31872782312000981386
:1005C8008731B0278231200098178C1EEC2AED2A3B
:1005D800E92AEF2A96015C085D040319F42AF52A32
:1005E800572B5A035B04031DFA2AFB2AFE2ADC0157
:1005F800DD01572B02305A065B04031D042B052B23
:100608001B2BDC01DD01210060082000E700210030
:1006180061082000E60067080319132B142B162B1A
:100628001614172B16108F3187278231572B03305A
:100638005A065B04031D212B222B572BDC01DD01FD
:10064800D630F9008331FD23823121006B08200068
:10065800E50021006A082000E40021006908200064
:10066800E300210068082000E2002100650820005E
:10067800D900210064082000D80021006708200064
:10068800D700210066082000D60021006D08200050
:10069800D50021006C082000D4008631BC268231A8
:1006A8008F310F27823120005908803AC5008730E2
:1006B8004502031D612B6D305802031C642B652B0A
:1006C800792B2000161515302000C6004B30C500C8
:1006D800BE30890B6D2BC50B6D2BC60B6D2B000027
:1006E8008131022182312000161120005708803AFA
:1006F800C50087304502031D832B6D305602031C4D
:10070800862B872BB02B20005508803AC5008530F2
:100718004502031D912BDD305402031C942B952BAD
:10072800B02B20005108031D9A2B9B2BB02B1614BD
:1007380015302000C6004B30C500BE30890BA22BF7
:10074800C50BA22BC60BA22B0000853104258231D4
:10075800200016100130D10020005708803AC5004B
:1007680087304502031DBA2B6D305602031CBD2B82
:10077800BE2BEA2B20005508803AC500853045027B
:10078800031DC82BDC3054020318CB2BCC2BEA2BCF
:1007980020005108031DD12BD22BEA2B96141530BB
:1007A8002000C6004B30C500BE30890BD92BC50BC5
:1007B800D92BC60BD92B00008731B027823187315E
:1007C800E1278231200096100130D100200057081F
:1007D800803AC50084304502031DF42B4C30560284
:1007E8000318F72BF82BD52A2000D101D52A803100
:1007F800C0282000B001B101AA01AB01AC01AD01D4
:100808003E308600013087002030840000308500AB
:100818000A30FA0016001A00FA0B0E2C0530F10007
:100828000030F2007908093E860087017908083E01
:10083800840085010008183EF300FC30013DF400F7
:1008480086316126833172082000AF007108AE003E
:100858000530F1000030F20079080B3E8600870170
:1008680079080A3E840085010008183EF300FC3030
:10087800013DF40086316126833172082000B10001
:100888007108B0002F08803AFA0080307A02031D00
:100898004F2C6E302E020318522C532C652C20003E
:1008A8002F08803AFA0080307A02031D5D2C5B30F5
:1008B8002E02031C602C612C652C2000AA01AB01C0
:1008C8009B2C20002F08803AFA0080307A02031D02
:1008D8006F2C6F302E02031C722C732C7F2C01306E
:1008E8002000AA000030AB002E089C3EAE00FF306E
:1008F8002F3DAF009B2C20002F08803AFA00803053
:100908007A02031D892C5A302E0203188C2C8D2C48
:100918009B2C02302000AA000030AB006430FA00A3
:100928002E087A02AE002F090318890AAF002000AA
:100938003108803AFA0080307A02031DA52C6E3007
:1009480030020318A82CA92CBB2C20003108803AAF
:10095800FA0080307A02031DB32C5B303002031C8E
:10096800B62CB72CBB2C2000AC01AD01F12C20001B
:100978003108803AFA0080307A02031DC52C6F30A6
:100988003002031CC82CC92CD52C01302000AC0027
:100998000030AD0030089C3EB000FF30313DB10062
:1009A800F12C20003108803AFA0080307A02031DC9
:1009B800DF2C5A3030020318E22CE32CF12C0230E1
:1009C8002000AC000030AD006430FA0030087A0234
:1009D800B00031090318890AB10020002C08A600CC
:1009E8003008A7002A08A8002E08A9002030F10026
:1009F8000A30F2000030F3008F31B8278331080045
:100A08003E00B810200091140F30F20001308F31F1
:100A18009F2785318430F2002A308F319F27853116
:100A2800F2012B308F319F278531F201F20A2C30E9
:100A38008F319F2785314930F2002D308F319F2724
:100A480085312930F20011308F319F2785314030B0
:100A5800F20015308F319F2785310330F6001430AE
:100A68008E31EE2685318030F2000A308F319F2793
:100A780085310730F2000D308F319F2785312630C0
:100A8800F20009308F319F2785318E31E12685317B
:100A98000A308E31FE2685312000BB00B701B8012F
:100AA800632D200037082D3E860087018E31D12620
:100AB8008531810001302000B7070030B83D380883
:100AC800803AA00080302002031D6C2D3B083702BD
:100AD800031C6F2D702D552D023020003B06031D81
:100AE800762D772D9C2D04302D06031D7C2D7D2D14
:100AF8009C2D2E08031D812D822D9C2D8030F20007
:100B08000A308F319F278531F2010D308F319F27B1
:100B180085319330F20009308F319F27853120309D
:100B2800F20009308F319F2785318E31E1268531DA
:100B38000A308E31FE2685312000BB00B901BA018A
:100B4800B32D200039082D3E860087018E31D1262D
:100B58008531810001302000B9070030BA3D3A08DC
:100B6800803A803C031DBA2D39083B020318BD2D7D
:100B7800BE2DA52D20002F082E06A0003008200627
:100B8800A1002D082106A20022083106031DCD2D43
:100B9800CE2D082D343086000130870023308400A4
:100BA800003085000A30A00016001A00A00BD82DCE
:100BB8003008AB002F08AC002330F1000A30F200F7
:100BC8000030F3008F31B8278531200096140800D3
:100BD8002000B400AA30860000308700203084004E
:100BE800003085000A30F70016001A00F70BF82DC0
:100BF8002030F1000A30F2000030F3008F31B827BE
:100C080085310330F8000830F7007730890B0A2E59
:100C1800F70B0A2EF80B0A2E0000A03086000030D1
:100C280087002A308400003085000A30F70016005B
:100C38001A00F70B1B2E20003403031D242E252E2B
:100C48002E2E0130B0005030B1000230B2003230E8
:100C5800B3004B2E02303406031D332E342E3D2EA6
:100C68000230B0003230B1000130B2005030B30071
:100C78004B2E03303406031D422E432E4B2E0130DB
:100C8800B0003230B1000130B2003230B3002A3047
:100C9800F1000A30F2000030F3008F31B8278531B7
:100CA8000930F800EE30F700AF30890B592EF70BFA
:100CB800592EF80B592E00000800F601F21F652E78
:100CC800662E6D2EF109F209F10A0319F20A0130B4
:100CD800F600F41F702E712E782EF309F409F30A2A
:100CE8000319F40A0130F606F701F80171087204D5
:100CF80003197F2E802EAD2E0130F5008A2E01308B
:100D0800F135F20D890B842E0130F507F21F8D2E77
:100D18008E2E832E0130F735F80D890B8F2E720831
:100D28007402031D992E71087302031C9C2E9D2EBC
:100D3800A22E7108F3027208F43B77140130F236E0
:100D4800F10C890BA32E0130F502031DAC2EAD2E3C
:100D58008E2E76080319B12EB22EB72EF709F80990
:100D6800F70A0319F80A7808F2007708F100080072
:100D780020006508803AF80086307802031DC62EE8
:100D880041306402031CC92ECA2E132F20006308A9
:100D9800803AF80087307802031DD42E09306202A9
:100DA800031CD72ED82EE22E20006708031DDD2E47
:100DB800DE2E132F8F316F278631132F2000630803
:100DC800803AF80085307802031DEC2E1530620257
:100DD800031CEF2EF02E022F20006308803AF80043
:100DE80086307802031DFA2EA43062020318FD2E05
:100DF800FE2E022F8F313F278631132F20006308E4
:100E0800803AF80080307802031D0C2FC830620247
:100E180003180F2F102F132F8F31572786310800F3
:100E2800FE341934013406340434003400340034F8
:100E380000340034FE3419340134063404340034E8
:100E48000034003400340034FE34193403340434DC
:100E580003340034043411340134FE3419340134B9
:100E68000934013400340134FE34193401340434B3
:100E780000340034FE3419340134053400340034AD
:100E8800FE3419340434093400340034F60076038F
:100E9800031D4F2F502F542F083021009E00672F1D
:100EA80002307606031D592F5A2F5E2F0930210074
:100EB8009E00672F03307606031D632F642F672F6C
:100EC8000A3021009E000B30F3006230890B6A2F34
:100ED800F30B6A2F0032210013141318742F752F87
:100EE800712F0D08F5000C08F4007508F20074085D
:100EF800F1000800FE341934013406340434003497
:100F08000034403400344034FE34193401340A3497
:100F1800043400340234003400340034FE3419340C
:100F280001340A3404340034013400340034003409
:100F3800FE341934013406340434003400344034A7
:100F480000344034FE341934013406340434003497
:100F5800003400340034003420009811D201D30149
:100F6800FF3023008C000F1CBA2FBB2FB72F0C08A3
:100F7800F100F2017108F200F10120005208710439
:100F8800F40053087204F5007408D2007508D30001
:100F9800FF3023008C000F1CD22FD32FCF2F20001F
:100FA800520823000C04F10020005308F2007108D5
:100FB800D2007208D300981508002A308600013044
:100FC800870020308400003085000A30F7001600C2
:100FD8001A00F70BEB2F20005208A8005308A900AD
:100FE8002030F1000A30F2000030F3008F31B827CA
:080FF800873108000A340034BF
:101D7000640080010131890BB92E0034FE0012008D
:101D80001E00FE0BBF2E0034FE3419340234093419
:101D900000340034FE308E31D8268E3123000C08FA
:101DA000080009308E31FE268E31F40074080800D8
:101DB000F100710823008C000F1CDF2EE02EDC2EBA
:101DC00008000C30F20001308F319F278E318030B7
:101DD000F6000D308E31EE268E310800F9007908BC
:101DE0008E31FE268E31F70077087604F8007808E9
:101DF000F20079088F319F278E310800F200200011
:101E000098137235FE3980388E31D8268E318E3156
:101E1000CA268E31F3002000981773080800C430DA
:101E200086000030870020308400003085000630B6
:101E3000F70016001A00F70B192F2030F1000630BA
:101E4000F2000030F3008F31B8278F310800B43032
:101E50008600003087002030840000308500093083
:101E6000F70016001A00F70B312F2030F10009306F
:101E7000F2000030F3008F31B8278F310800BD30F9
:101E80008600003087002030840000308500073055
:101E9000F70016001A00F70B492F2030F100073029
:101EA000F2000030F3008F31B8278F310800D030B6
:101EB0008600003087002030840000308500063026
:101EC000F70016001A00F70B612F2030F1000630E2
:101ED000F2000030F3008F31B8278F3108006830EE
:101EE00086000030870020308400003085000630F6
:101EF000F70016001A00F70B792F2030F10006309A
:101F0000F2000030F3008F31B8278F310800CA305B
:101F100086000030870020308400003085000630C5
:101F2000F70016001A00F70B912F2030F100063051
:101F3000F2000030F3008F31B8278F310800F40031
:101F400074357E39F5002000981375088E31D82637
:101F50008F3172088E31D8268F31200098170B30C0
:101F6000F3006230890BB22FF30BB22F003208005E
:101F7000F501F601CA2F22009E1CBF2FC02FBB2FD8
:101F8000710875078600870101089A000130F5077E
:101F90000030F63D7608803AF4007308803A740207
:101FA000031DD42F72087502031CD72FD82FBB2F07
:101FB000080023009012200012163E0043120C303D
:101FC0003D00C600200092123E00C31215309D0055
:101FD000200092113E00C31114309B002000931387
:101FE0003E00CE1320009817230010120F178F17F2
:101FF0001008F0390A3890009F308D0090160800C4
:08200000523403343934033477
:020000040001F9
:0A000E008F3FFF3F9F3FFF3FFF3F82
:00000001FF
