:040000008031B9286A
:100008007E1480312E008F1E0A280B28B728200066
:100018002808323E86008701220019088100013035
:100028002000A8070030A93D22009D1C1C281D287F
:100038001F281D121D160430200028062904031D40
:100048002628272852283508AB003408AA00033090
:100058002B062A04031D3128322837280630FB00D6
:100068000030FC00522802302A06043003192B06FF
:10007800031D3F28402845280C30FB000030FC00B9
:10008800522802302A06053003192B06031D4D2875
:100098004E2852281A30FB000030FC002908803A0C
:1000A800F0007C08803A7002031D5C287B08280257
:1000B800031C5F286028732806307B067C04031D18
:1000C8006628672873282000A801A9010130A60026
:1000D8000030A7000130A4000030A500B728200098
:1000E8002908803AF0007C08803A7002031D7E28B7
:1000F8007B082802031C8128822895280C307B065F
:100108007C04031D8828892895282000A801A901B6
:100118000130A6000030A7000230A4000030A5007E
:10012800B72820002908803AF0007C08803A70023D
:10013800031DA0287B082802031CA328A428B7288D
:100148001A307B067C04031DAA28AB28B728200098
:10015800A801A9010130A6000030A7000330A400BF
:100168000030A500B7287E1009008031BB288631F1
:1001780081268031FB00863182268031FC001930CF
:10018800840085308500A03086000030870050301C
:1001980086317526803120308400003085002C306F
:1001A80086317B2680317E10200083315A2B073020
:1001B8003E00C3000730200092001F302100980045
:1001C800FC309A051A1201309D001315931701305F
:1001D80085316925803172082000D8007108D70060
:1001E800023085316925803172082000DA007108F3
:1001F800D900033085316925803172082000DC0080
:100208007108DB008530840086308500003FF900E6
:10021800013FFA007A085A02031D14297908590285
:10022800031817291829412983308400863085004E
:10023800003FF900013FFA005C087A02031D2629F5
:100248005B087902031829292A2941298530840065
:1002580086308500003FF900013FFA007A0858020D
:10026800031D38297908570203183B293C294129DD
:1002780003308431C8248031312A853084008630A7
:100288008500003FF900013FFA007A085A02031D71
:100298004F29790859020318522953297C29833098
:1002A800840086308500003FF900013FFA005C08B1
:1002B8007A02031D61295B087902031864296529FC
:1002C8007C298330840086308500003FF900013F97
:1002D800FA0058087A02031D73295708790203188F
:1002E800762977297C2902308431C8248031312A43
:1002F8008530840086308500003FF900013FFA0010
:100308007A085A02031D8A297908590203188D2987
:100318008E29B7298530840086308500003FF90092
:10032800013FFA007A085C02031D9C2979085B02E8
:1003380003189F29A029B7298330840086308500B7
:10034800003FF900013FFA0058087A02031DAE2960
:10035800570879020318B129B229B7290230843124
:10036800C8248031312A8330840086308500003FDC
:10037800F900013FFA005A087A02031DC5295908F5
:1003880079020318C829C929F229853084008630E2
:100398008500003FF900013FFA007A085C02031D5E
:1003A800D72979085B020318DA29DB29F229853075
:1003B800840086308500003FF900013FFA007A0882
:1003C8005802031DE929790857020318EC29ED2979
:1003D800F22901308431C8248031312A83308400E5
:1003E80086308500003FF900013FFA005A087A027A
:1003F800031D002A590879020318032A042A2D2A02
:100408008330840086308500003FF900013FFA0000
:100418005C087A02031D122A5B0879020318152A60
:10042800162A2D2A8530840086308500003FF90081
:10043800013FFA007A085802031D242A7908570256
:100448000318272A282A2D2A01308431C82480310C
:10045800312A04308431C82480318531E525803142
:1004680020004108803AF90087307902031D3E2AAE
:10047800D03042020318412A422AEB280430843142
:10048800C82480310330FA000830F9007730890B2E
:100498004B2AF90B4B2AFA0B4B2A000008002000C4
:1004A800DC01DD01D601D701D801D901B4308600BD
:1004B800003087004C308400003085000A30FA0094
:1004C80016001A00FA0B642A0530F1000030F20019
:1004D8007908093E860087017908083E840085016D
:1004E8000008183EF300FC30013DF4008431142468
:1004F800823172082000DB007108DA000530F10053
:100508000030F20079080B3E8600870179080A3E20
:10051800840085010008183EF300FC30013DF4001A
:1005280084311424823172082000DD007108DC0057
:100538005B08803AFA0080307A02031DA52A6E30E3
:100548005A020318A82AA92ABB2A20005B08803A65
:10055800FA0080307A02031DB32A5B305A02031C6A
:10056800B62AB72ABB2A2000D601D701F12A2000D3
:100578005B08803AFA0080307A02031DC52A6F3082
:100588005A02031CC82AC92AD52A01302000D600DD
:100598000030D7005A089C3EDA00FF305B3DDB0094
:1005A800F12A20005B08803AFA0080307A02031DA5
:1005B800DF2A5A305A020318E22AE32AF12A0230C3
:1005C8002000D6000030D7006430FA005A087A02BA
:1005D800DA005B090318890ADB0020005D08803A0D
:1005E800FA0080307A02031DFB2A6E305C02031881
:1005F800FE2AFF2A112B20005D08803AFA0080307D
:100608007A02031D092B5B305C02031C0C2B0D2B9B
:10061800112B2000D801D901472B20005D08803A12
:10062800FA0080307A02031D1B2B6F305C02031C1A
:100638001E2B1F2B2B2B01302000D8000030D90097
:100648005C089C3EDC00FF305D3DDD00472B200050
:100658005D08803AFA0080307A02031D352B5A3043
:100668005C020318382B392B472B02302000D800A6
:100678000030D9006430FA005C087A02DC005D09B9
:100688000318890ADD0020005808D2005C08D3004E
:100698005608D4005A08D5004C30F1000A30F20050
:1006A8000030F3008531C425823108002030200055
:1006B80091003E00B801200013133E004E132200A3
:1006C8009E161E129D139D171D16200093163E00A0
:1006D800CE1222009F151E159C0144309B008B17DB
:1006E8000B172E00991610303E00A60015303D005D
:1006F800CB0085319D258331A030860000308700EE
:1007080060308400003085000A302000DE001600CA
:100718001A00DE0B8B2B20008C1A932B942BA22B08
:100728000F3096008631452683318531E5258331A2
:1007380020008C1EA02BA12B9C2BA32B96012608F6
:1007480027040319A82BA92BED2B24032504031D2B
:10075800AE2BAF2BB22BA601A701ED2B023024063E
:100768002504031DB82BB92BCB2BA601A7013C08E8
:10077800B1003D08B00031080319C32BC42BC62BA8
:100788001614C72B16108531E5258331ED2B033060
:1007980024062504031DD12BD22BED2BA601A7017E
:1007A8003230F90082315322833120004708AF00EC
:1007B8004608AE004508AD004408AC004108A30057
:1007C8004208A20084316F24833186315D2683314B
:1007D800ED2B20002308803ADE0087305E02031DDF
:1007E800F72BD0302202031CFA2BFB2B112C2000F4
:1007F800161529302000DF009630DE007F30890B87
:10080800032CDE0B032CDF0B032C20002208803185
:10081800DB208331200016118F2B8F2B8031B928D4
:10082800F601F21F182C192C202CF109F209F10AF3
:100838000319F20A0130F600F41F232C242C2B2C68
:10084800F309F409F30A0319F40A0130F606F7016B
:10085800F801710872040319322C332C602C013012
:10086800F5003D2C0130F135F20D890B372C0130A4
:10087800F507F21F402C412C362C0130F735F80DC6
:10088800890B422C72087402031D4C2C71087302E8
:10089800031C4F2C502C552C7108F3027208F43BA2
:1008A80077140130F236F10C890B562C0130F50221
:1008B800031D5F2C602C412C76080319642C652CD1
:1008C8006A2CF709F809F70A0319F80A7808F200F8
:1008D8007708F100080020002F08803AF8008630D9
:1008E8007802031D792C41302E02031C7C2C7D2CB0
:1008F800C72C20002D08803AF80087307802031DA5
:10090800872C09302C02031C8A2C8B2C952C200058
:100918003108031D902C912CC72C8531FD2584317D
:10092800C72C20002D08803AF80085307802031D76
:100938009F2C15302C02031CA22CA32CB52C2000B4
:100948002D08803AF80086307802031DAD2CA430BB
:100958002C020318B02CB12CB52C86312D268431ED
:10096800C72C20002D08803AF80080307802031D3B
:10097800BF2CC8302C020318C22CC32CC72C8631BC
:1009880015268431C72C08002000D600BE3086000A
:10099800003087004C308400003085000A30F700B2
:1009A80016001A00F70BD42C5603031DDC2CDD2C83
:1009B800E62C0130D2004630D3000230D400323069
:1009C800D500032D02305606031DEB2CEC2CF52C1C
:1009D8000230D2003230D3000130D4004630D50086
:1009E800032D03305606031DFA2CFB2C032D013072
:1009F800D2004630D3000130D4004630D5004C3008
:100A0800F1000A30F2000030F3008531C42584314A
:100A18000330F8000830F7007730890B112DF70BF9
:100A2800112DF80B112D00000800FE341934013483
:100A38000634043400340034403400344034FE3486
:100A4800193401340A3404340034013400340034D5
:100A58000034FE34193401340634043400340034CC
:100A6800403400344034FE3419340134063404343C
:100A780000340034003400340034FE3419340334B4
:100A8800043403340034043411340134FE3419348A
:100A980001340934013400340134FE34193401348A
:100AA800043400340034FE3419340134053400347D
:100AB8000034FE3419340434093400340034FE346C
:100AC80019340234093400340034F6007603031D67
:100AD8006E2D6F2D732D083021009E00862D02305B
:100AE8007606031D782D792D7D2D093021009E0075
:100AF800862D03307606031D822D832D862D0A3020
:100B080021009E000B30F3006230890B892DF30B16
:100B1800892D0032210013141318932D942D902D34
:100B28000D08F5000C08F4007508F2007408F100CF
:100B3800080023009012200012163E0043120C30C9
:100B48003D00C600200092123E00C31215309D00E1
:100B5800200092113E00C31114309B002000931313
:100B68003E00CE1320009817230010120F178F177E
:100B78001008F0390A3890009F308D009016080050
:100B8800F501F601D62D22009E1CCB2DCC2DC72DAC
:100B9800710875078600870101089A000130F5077A
:100BA8000030F63D7608803AF4007308803A740203
:100BB800031DE02D72087502031CE32DE42DC72DDB
:100BC8000800DE308600003087004C30840000309A
:100BD80085000630F70016001A00F70BEF2D4C3091
:100BE800F1000630F2000030F3008531C42585316C
:100BF8000800EA308600003087004C30840000305E
:100C080085000630F70016001A00F70B072E4C3047
:100C1800F1000630F2000030F3008531C42585313B
:100C28000800E4308600003087004C308400003033
:100C380085000630F70016001A00F70B1F2E4C30FF
:100C4800F1000630F2000030F3008531C42586310A
:100C58000800D1308600003087004C308400003016
:100C680085000730F70016001A00F70B372E4C30B6
:100C7800F1000730F2000030F3008531C4258631D9
:100C88000800C8308600003087004C3084000030EF
:100C980085000930F70016001A00F70B4F2E4C306C
:100CA800F1000930F2000030F3008531C4258631A7
:100CB8000800D8308600003087004C3084000030AF
:100CC80085000630F70016001A00F70B672E4C3027
:100CD800F1000630F2000030F3008531C42586317A
:100CE8000800FE0012001E00FE0B762E0034640081
:100CF80080010131890B7C2E00340A3400345234CF
:060D08000334393403340A
:020000040001F9
:0A000E008F3FFF3F9F3FFF3FFF3F82
:00000001FF
