:040000008031C02863
:100008007E14803100308600003087002E008F1E5D
:100018000E280F28BE2820005C08D63E86008701DF
:1000280022001908810001302000DC070030DD3D86
:1000380022009D1C2028212823281D121D1604306B
:1000480020005C065D04031D2A282B285A2821005D
:1000580059082000DF00210058082000DE00033086
:100068005F065E04031D39283A283F280630FB0046
:100078000030FC005A2802305E06043003195F067F
:10008800031D472848284D280C30FB000030FC0091
:100098005A2802305E06053003195F06031D5528ED
:1000A80056285A281A30FB000030FC005D08803AB8
:1000B800F0007C08803A7002031D64287B085C020B
:1000C800031C672868287B2806307B067C04031DF0
:1000D8006E286F287B282000DC01DD010130DA0062
:1000E8000030DB000130D8000030D900BE282000E5
:1000F8005D08803AF0007C08803A7002031D86286B
:100108007B085C02031C89288A289D280C307B0602
:100118007C04031D902891289D282000DC01DD0126
:100128000130DA000030DB000230D8000030D9009E
:10013800BE2820005D08803AF0007C08803A7002F2
:10014800031DA8287B085C02031CAB28AC28BE282A
:100158001A307B067C04031DB228B328BE28200071
:10016800DC01DD010130DA000030DB000330D800AB
:100178000030D9007E1009008031C22887319927C4
:100188008031FB0087319A278031FC00873084005A
:10019800873085006630860000308700063087315A
:1001A8008D2780311D30840086308500A030860080
:1001B80000308700363087318D27803187308400C2
:1001C800863085002030860001308700283087314E
:1001D8008D278031523084000030850014308731FB
:1001E80093278031D6308400003085001A3087315B
:1001F800932780317E10200082319F2A07303E00ED
:10020800C3000730200092001F3021009800FC3006
:100218009A051A1201309D00131593178631F72697
:10022800813121006508803AF90087307902031D81
:100238001F29D030640203182229232934290430C5
:100248008431F52481310330FA000830F900773021
:10025800890B2C29F90B2C29FA0B2C2900009E2A32
:100268003E3086000130870035308400003085003C
:100278000A30F90016001A00F90B3E293530F10052
:100288000A30F2000030F3008631D626813103307F
:10029800FA007030F9005C30890B5029F90B5029AD
:1002A800FA0B502900320130863153268131720809
:1002B8002000C0007108BF0002308631532681310A
:1002C80072082000C2007108C1000330863153262D
:1002D800813172082000C4007108C3009D30840079
:1002E80087308500003FF900013FFA007A08420292
:1002F800031D802979084102031883298429AD291F
:100308009B30840087308500003FF900013FFA00E8
:1003180044087A02031D9229430879020318952993
:100328009629AD299D30840087308500003FF9006B
:10033800013FFA007A084002031DA42979083F0208
:100348000318A729A829AD2903308431F524813160
:1003580012299D30840087308500003FF900013F55
:10036800FA007A084202031DBB29790841020318E2
:10037800BE29BF29E8299B30840087308500003FCB
:10038800F900013FFA0044087A02031DCD29430809
:1003980079020318D029D129E8299B3084008730B5
:1003A8008500003FF900013FFA0040087A02031D6A
:1003B800DF293F0879020318E229E329E8290230F6
:1003C8008431F524813112299D30840087308500DD
:1003D800003FF900013FFA007A084202031DF6299E
:1003E800790841020318F929FA29232A9D30840043
:1003F80087308500003FF900013FFA007A0844027F
:10040800031D082A7908430203180B2A0C2A232AF9
:100418009B30840087308500003FF900013FFA00D7
:1004280040087A02031D1A2A3F08790203181D2A78
:100438001E2A232A02308431F524813112299B3067
:10044800840087308500003FF900013FFA00420828
:100458007A02031D312A410879020318342A352A01
:100468005E2A9D30840087308500003FF900013FF7
:10047800FA007A084402031D432A79084302031844
:10048800462A472A5E2A9D30840087308500003F2F
:10049800F900013FFA007A084002031D552A79083D
:1004A8003F020318582A592A5E2A01308431F5245C
:1004B800813112299B30840087308500003FF90084
:1004C800013FFA0042087A02031D6C2A41087902AA
:1004D80003186F2A702A992A9B3084008730850078
:1004E800003FF900013FFA0044087A02031D7E2A02
:1004F800430879020318812A822A992A9D308400A8
:1005080087308500003FF900013FFA007A08400271
:10051800031D902A79083F020318932A942A992ADE
:1005280001308431F5248131122903308431F524D6
:100538008131122908002000D101203091003E00AD
:10054800B801200013133E004E1322009E161E12FF
:100558009D139D171D16200093163E00CE122200F3
:100568009F151E159C0144309B008B170B172E00FE
:10057800991610303E00A60015303D00CB0086319C
:10058800AF26823120308600013087004730840052
:10059800003085000A302000C50016001A00C50B7F
:1005A800D12A20008C1AD92ADA2AE82A0F30960094
:1005B8008731572782318631F726823120008C1EF9
:1005C800E62AE72AE22AE92A96015A085B0403196F
:1005D800EE2AEF2A512B58035904031DF42AF52A51
:1005E800F82ADA01DB01512B023058065904031DA1
:1005F800FE2AFF2A152BDA01DB0121006008200002
:10060800E500210061082000E400650803190D2BAE
:100618000E2B102B1614112B16108631F72682314B
:10062800512B033058065904031D1B2B1C2B512B2F
:10063800DA01DB01D630F9008331EE238231210063
:100648006B082000E30021006A082000E200210076
:1006580069082000E100210068082000E00021006E
:1006680065082000D700210064082000D60021007A
:1006780067082000D500210066082000D40021006A
:100688006D082000D30021006C082000D2008531BD
:10069800C525823187316F27823120005708803A7B
:1006A800C50087304502031D5B2B6D305602031CC5
:1006B8005E2B5F2B732B2000161515302000C6000B
:1006C8004B30C500BE30890B672BC50B672BC60B9B
:1006D800672B000081310221823120001611200091
:1006E8005508803AC50087304502031D7D2B6D30C3
:1006F8005402031C802B812BA72B20005308803A1F
:10070800C50085304502031D8B2BDD305202031CCA
:100718008E2B8F2BA72B20005108031D942B952B74
:10072800A72B161415302000C6004B30C500BE306C
:10073800890B9C2BC50B9C2BC60B9C2B0000200007
:1007480016100130D10020005508803AC5008730C6
:100758004502031DB12B6D305402031CB42BB52B7D
:10076800DB2B20005308803AC50085304502031D65
:10077800BF2BDC3052020318C22BC32BDB2B20000B
:100788005108031DC82BC92BDB2B961415302000EC
:10079800C6004B30C500BE30890BD02BC50BD02B03
:1007A800C60BD02B0000200096100130D10020008D
:1007B8005508803AC50084304502031DE52B4C30AE
:1007C80054020318E82BE92BD52A2000D101D52A99
:1007D8008031C0282000B001B101AA01AB01AC01F1
:1007E800AD013430860001308700203084000030AD
:1007F80085000A30FA0016001A00FA0BFF2B0530A4
:10080800F1000030F2007908093E86008701790876
:10081800083E840085010008183EF300FC30013DC5
:10082800F40085316A25833172082000AF00710811
:10083800AE000530F1000030F20079080B3E86006A
:10084800870179080A3E840085010008183EF300F4
:10085800FC30013DF40085316A258331720820009F
:10086800B1007108B0002F08803AFA0080307A028F
:10087800031D402C6E302E020318432C442C562C9A
:1008880020002F08803AFA0080307A02031D4E2C8F
:100898005B302E02031C512C522C562C2000AA012E
:1008A800AB018C2C20002F08803AFA0080307A02A5
:1008B800031D602C6F302E02031C632C642C702CDB
:1008C80001302000AA000030AB002E089C3EAE008C
:1008D800FF302F3DAF008C2C20002F08803AFA0003
:1008E80080307A02031D7A2C5A302E0203187D2C90
:1008F8007E2C8C2C02302000AA000030AB00643023
:10090800FA002E087A02AE002F090318890AAF00F0
:1009180020003108803AFA0080307A02031D962CB4
:100928006E3030020318992C9A2CAC2C2000310818
:10093800803AFA0080307A02031DA42C5B30300222
:10094800031CA72CA82CAC2C2000AC01AD01E22C78
:1009580020003108803AFA0080307A02031DB62C54
:100968006F303002031CB92CBA2CC62C0130200081
:10097800AC000030AD0030089C3EB000FF30313D87
:10098800B100E22C20003108803AFA0080307A0267
:10099800031DD02C5A3030020318D32CD42CE22C4F
:1009A80002302000AC000030AD006430FA0030089E
:1009B8007A02B00031090318890AB10020002C0816
:1009C800A6003008A7002A08A8002E08A900203091
:1009D800F1000A30F2000030F3008631D626833168
:1009E80008002000B400AA308600003087002030BC
:1009F8008400003085000A30F70016001A00F70B53
:100A0800012D2030F1000A30F2000030F300863169
:100A1800D62684310330F8000830F7007730890B88
:100A2800132DF70B132DF80B132D0000A0308600A3
:100A3800003087002A308400003085000A30F70033
:100A480016001A00F70B242D20003403031D2D2D4A
:100A58002E2D372D0130B0005030B1000230B200D9
:100A68003230B300542D02303406031D3C2D3D2D89
:100A7800462D0230B0003230B1000130B2005030A3
:100A8800B300542D03303406031D4B2D4C2D542D2B
:100A98000130B0003230B1000130B2003230B30062
:100AA8002A30F1000A30F2000030F3008631D626F1
:100AB80084310930F800EE30F700AF30890B622D31
:100AC800F70B622DF80B622D00000800F601F21FEB
:100AD8006E2D6F2D762DF109F209F10A0319F20A2C
:100AE8000130F600F41F792D7A2D812DF309F409D0
:100AF800F30A0319F40A0130F606F701F801710840
:100B080072040319882D892DB62D0130F500932D17
:100B18000130F135F20D890B8D2D0130F507F21FEB
:100B2800962D972D8C2D0130F735F80D890B982DC2
:100B380072087402031DA22D71087302031CA52DEF
:100B4800A62DAB2D7108F3027208F43B771401301F
:100B5800F236F10C890BAC2D0130F502031DB52DD1
:100B6800B62D972D76080319BA2DBB2DC02DF70980
:100B7800F809F70A0319F80A7808F2007708F1006B
:100B8800080020006308803AF80086307802031DC8
:100B9800CF2D41306202031CD22DD32D1C2E2000F4
:100BA8006108803AF80087307802031DDD2D09308E
:100BB8006002031CE02DE12DEB2D20006508031DCC
:100BC800E62DE72D1C2E87310F2785311C2E20009E
:100BD8006108803AF80085307802031DF52D15303C
:100BE8006002031CF82DF92D0B2E20006108803AB5
:100BF800F80086307802031D032EA4306002031823
:100C0800062E072E0B2E87313F2785311C2E2000FC
:100C18006108803AF80080307802031D152EC8302C
:100C280060020318182E192E1C2E873127278531AC
:100C38000800FE3419340134063404340034003416
:100C4800003400340034FE341934013406340434DA
:100C580000340034003400340034FE3419340334D2
:100C6800043403340034043411340134FE341934A8
:100C780001340934013400340134FE3419340134A8
:100C8800043400340034FE3419340134053400349B
:100C98000034FE3419340434093400340034F600C6
:100CA8007603031D582E592E5D2E083021009E0014
:100CB800702E02307606031D622E632E672E0930D1
:100CC80021009E00702E03307606031D6C2E6D2EBB
:100CD800702E0A3021009E000B30F3006230890B21
:100CE800732EF30B732E00322100131413187D2E6C
:100CF8007E2E7A2E0D08F5000C08F4007508F20017
:100D08007408F1000800FE34193401340634043440
:100D180000340034403400344034FE341934013493
:100D28000A34043400340134003400340034FE340E
:100D380019340134063404340034003440340034A7
:100D48004034FE3419340134063404340034003499
:100D580000340034003423009012200012163E00A4
:100D680043120C303D00C600200092123E00C31210
:100D780015309D00200092113E00C31114309B00D5
:100D8800200093133E00CE13200098172300101262
:100D98000F178F171008F0390A3890009F308D0010
:100DA80090160800F501F601E82E22009E1CDD2EA3
:100DB800DE2ED92E710875078600870101089A0072
:100DC8000130F5070030F63D7608803AF4007308E4
:100DD800803A7402031DF22E72087502031CF52E68
:100DE800F62ED92E0800CA30860000308700203041
:100DF8008400003085000630F70016001A00F70B53
:100E0800012F2030F1000630F2000030F300863167
:100E1800D6268631080066308600003087002030EC
:100E28008400003085000630F70016001A00F70B22
:100E3800192F2030F1000630F2000030F30086311F
:100E4800D62687310800D030860000308700203051
:100E58008400003085000630F70016001A00F70BF2
:100E6800312F2030F1000630F2000030F3008631D7
:100E7800D62687310800BD30860000308700203034
:100E88008400003085000730F70016001A00F70BC1
:100E9800492F2030F1000730F2000030F30086318E
:100EA800D62687310800B43086000030870020300D
:100EB8008400003085000930F70016001A00F70B8F
:100EC800612F2030F1000930F2000030F300863144
:100ED800D62687310800C4308600003087002030CD
:100EE8008400003085000630F70016001A00F70B62
:100EF800792F2030F1000630F2000030F3008631FF
:100F0800D62687310800FE341934023409340034F7
:100F18000034FE0012001E00FE0B8E2F0034640009
:100F280080010131890B942F00340A340034523483
:060F3800033439340334D8
:020000040001F9
:0A000E008F3FFF3F9F3FFF3FFF3F82
:00000001FF
