:100000008031C0280A3400347E14803100308600EC
:10001000003087002E008F1E0E280F28BE282000DB
:100020005F08D63E86008701220019088100013052
:100030002000DF070030E03D22009D1C2028212801
:1000400023281D121D16043020005F066004031DC6
:100050002A282B285A28210059082000E2002100D4
:1000600058082000E100033062066104031D3928AE
:100070003A283F280630FB000030FC005A280230A6
:100080006106043003196206031D472848284D28DD
:100090000C30FB000030FC005A28023061060530AD
:1000A00003196206031D552856285A281A30FB00EA
:1000B0000030FC006008803AF0007C08803A700252
:1000C000031D64287B085F02031C672868287B28BF
:1000D00006307B067C04031D6E286F287B282000D9
:1000E000DF01E0010130DD000030DE000130DB0027
:1000F0000030DC00BE2820006008803AF0007C0858
:10010000803A7002031D86287B085F02031C892841
:100110008A289D280C307B067C04031D902891289A
:100120009D282000DF01E0010130DD000030DE000D
:100130000230DB000030DC00BE2820006008803A7E
:10014000F0007C08803A7002031DA8287B085F023B
:10015000031CAB28AC28BE281A307B067C04031D88
:10016000B228B328BE282000DF01E0010130DD0005
:100170000030DE000330DB000030DC007E100900C0
:100180008031C228803102208031FB008031032081
:100190008031FC009C3084008E3085006930860000
:1001A0000030870006308E31962680316E30840014
:1001B00087308500A03086000030870036308E31D1
:1001C00096268031CE3084008F3085002030860026
:1001D0000130870032308E319626803153308400D2
:1001E0000030850016308E3190268031D630840064
:1001F000003085001A308E31902680317E1020002C
:1002000082319F2A07303E00C30007302000920051
:100210001F3021009800FC309A051A1201309D0011
:10022000131593178F317827813121006508803AA3
:10023000F90087307902031D1F29D03064020318AA
:1002400022292329342904308631092681310330BB
:10025000FA000830F9007730890B2C29F90B2C298A
:10026000FA0B2C2900009E2A4830860001308700B6
:1002700035308400003085000A30F90016001A007D
:10028000F90B3E293530F1000A30F2000030F3005E
:100290008F31AD2781310530FA000F30F900F13090
:1002A000890B5029F90B5029FA0B50290000013015
:1002B0008731A427813172082000C0007108BF0077
:1002C00002308731A427813172082000C2007108F2
:1002D000C10003308731A427813172082000C40097
:1002E0007108C3000230840090308500003FF9009F
:1002F000013FFA007A084202031D80297908410271
:10030000031883298429AD290030840090308500AA
:10031000003FF900013FFA0044087A02031D9229C8
:1003200043087902031895299629AD2902308400E3
:1003300090308500003FF900013FFA007A08400242
:10034000031DA42979083F020318A729A829AD296C
:100350000330863109268131122902308400903021
:100360008500003FF900013FFA007A084202031DB0
:10037000BB29790841020318BE29BF29E8290030AA
:10038000840090308500003FF900013FFA004408E6
:100390007A02031DCD29430879020318D029D129F7
:1003A000E8290030840090308500003FF900013FCB
:1003B000FA0040087A02031DDF293F08790203187A
:1003C000E229E329E8290230863109268131122900
:1003D0000230840090308500003FF900013FFA00B0
:1003E0007A084202031DF629790841020318F92907
:1003F000FA29232A0230840090308500003FF9005A
:10040000013FFA007A084402031D082A79084302D2
:1004100003180B2A0C2A232A003084009030850010
:10042000003FF900013FFA0040087A02031D1A2A32
:100430003F08790203181D2A1E2A232A023086311A
:100440000926813112290030840090308500003F58
:10045000F900013FFA0042087A02031D312A4108DF
:1004600079020318342A352A5E2A0230840090303B
:100470008500003FF900013FFA007A084402031D9D
:10048000432A790843020318462A472A5E2A023083
:10049000840090308500003FF900013FFA007A089F
:1004A0004002031D552A79083F020318582A592A89
:1004B0005E2A0130863109268131122900308400FC
:1004C00090308500003FF900013FFA0042087A02AF
:1004D000031D6C2A4108790203186F2A702A992A91
:1004E0000030840090308500003FF900013FFA00A1
:1004F00044087A02031D7E2A430879020318812AE0
:10050000822A992A0230840090308500003FF90049
:10051000013FFA007A084002031D902A79083F0241
:100520000318932A942A992A0130863109268131A9
:100530001229033086310926813112290800200052
:10054000D201203091003E00B801200013133E007C
:100550004E1322009E161E129D139D171D1620007D
:1005600093163E00CE1222009F151E159C014430AA
:100570009B008B170B172E00991610303E00A6001B
:1005800015303D00CB008731D827823120308600DE
:100590000130870047308400003085000A30200099
:1005A000C50016001A00C50BD12A20008C1AD92AC2
:1005B000DA2AF12A0F3096008F3118278231343031
:1005C0002000C500F130890BE32AC50BE32A003275
:1005D0008F317827823120008C1EEF2AF02AEB2AF7
:1005E000F22A96015D085E040319F72AF82A5A2BAD
:1005F0005B035C04031DFD2AFE2A012BDD01DE01E5
:100600005A2B02305B065C04031D072B082B1E2BA4
:10061000DD01DE01210060082000E8002100610802
:100620002000E70068080319162B172B192B161446
:100630001A2B16108F31782782315A2B03305B0624
:100640005C04031D242B252B5A2BDD01DE01D63043
:10065000F90084311D24823121006B082000E6005E
:1006600021006A082000E500210069082000E4005C
:10067000210068082000E300210065082000DA005E
:10068000210064082000D900210067082000D8005C
:10069000210066082000D70021006D082000D60048
:1006A00021006C082000D5008631D82682318F3198
:1006B0000027823120005A08803AC5008730450261
:1006C000031D642B6D305902031C672B682B7C2B98
:1006D0002000161515302000C6004B30C500BE3076
:1006E000890B702BC50B702BC60B702B0000813152
:1006F000022182312000161120005808803AC500DE
:1007000087304502031D862B6D305702031C892B51
:100710008A2BB72B20005608803AC5008530450249
:10072000031D942BDD305502031C972B982BB72B00
:1007300020005208031D9D2B9E2BB72B16148731CA
:10074000D827823115302000C6004B30C500BE309E
:10075000890BA82BC50BA82BC60BA82B0000853135
:10076000242582312000D10016100130D200200053
:100770005808803AC50087304502031DC12B6D30F3
:100780005702031CC42BC52B0A2C20005608803AA4
:10079000C50085304502031DCF2BDC305502031800
:1007A000D22BD32B0A2C20005208031DD82BD92B77
:1007B0000A2C961415302000C6004B30C500BE3000
:1007C000890BE02BC50BE02BC60BE02B000087311B
:1007D0003327823187313327823103302000C6002E
:1007E0000830C5007730890BF32BC50BF32BC60BF4
:1007F000F32B3730200053068F30031954060319AA
:10080000022C032CEA2B8F31902782312000961086
:100810000130D20020005808803AC50084304502DB
:10082000031D142C4C3057020318172C182CD52AF2
:100830002000D201D52A8031C0282000B001B101AA
:10084000AA01AB01AC01AD013E308600013087004A
:1008500020308400003085000A30FA0016001A00AB
:10086000FA0B2E2C0530F1000030F2007908093E19
:10087000860087017908083E840085010008183E3B
:10088000F300FC30013DF40086317D26843172088E
:100890002000AF007108AE000530F1000030F2001A
:1008A00079080B3E8600870179080A3E840085019D
:1008B0000008183EF300FC30013DF40086317D262F
:1008C000843172082000B1007108B0002F08803A0E
:1008D000FA0080307A02031D6F2C6E302E0203184E
:1008E000722C732C852C20002F08803AFA0080305F
:1008F0007A02031D7D2C5B302E02031C802C812C80
:10090000852C2000AA01AB01BB2C20002F08803AC7
:10091000FA0080307A02031D8F2C6F302E02031CE8
:10092000922C932C9F2C01302000AA000030AB00A9
:100930002E089C3EAE00FF302F3DAF00BB2C2000A8
:100940002F08803AFA0080307A02031DA92C5A3011
:100950002E020318AC2CAD2CBB2C02302000AA00B8
:100960000030AB006430FA002E087A02AE002F0986
:100970000318890AAF0020003108803AFA0080305D
:100980007A02031DC52C6E3030020318C82CC92C06
:10099000DB2C20003108803AFA0080307A02031DF7
:1009A000D32C5B303002031CD62CD72CDB2C200040
:1009B000AC01AD01112D20003108803AFA008030E1
:1009C0007A02031DE52C6F303002031CE82CE92C61
:1009D000F52C01302000AC000030AD0030089C3E0A
:1009E000B000FF30313DB100112D20003108803AB8
:1009F000FA0080307A02031DFF2C5A3030020318AF
:100A0000022D032D112D02302000AC000030AD006E
:100A10006430FA0030087A02B00031090318890AFC
:100A2000B10020002C08A6003008A7002A08A80062
:100A30002E08A9002030F1000A30F2000030F30047
:100A40008F31AD27843108000F30F30001308E3133
:100A5000EF2685318430F3002A308E31EF26853140
:100A6000F3012B308E31EF268531F301F30A2C3060
:100A70008E31EF2685314930F3002D308E31EF264F
:100A800085312930F30011308E31EF268531403029
:100A9000F30015308E31EF2685310330F600143027
:100AA0008E31BD2685318030F3000A308E31EF263D
:100AB00085310730F3000D308E31EF268531263039
:100AC000F30009308E31EF2685318E31B026853125
:100AD0000A308E31DE2685312000BB00B701B80117
:100AE0007F2D200037082D3E860087018E31A926F4
:100AF0008531810001302000B7070030B83D38084B
:100B0000803AA00080302002031D882D3B08370268
:100B1000031C8B2D8C2D712D023020003B06031DF4
:100B2000922D932DB82D04302D06031D982D992D4F
:100B3000B82D2E08031D9D2D9E2DB82D8030F3005D
:100B40000A308E31EF268531F3010D308E31EF26DC
:100B500085319330F30009308E31EF268531203016
:100B6000F30009308E31EF2685318E31B026853184
:100B70000A308E31DE2685312000BB00B901BA0172
:100B8000CF2D200039082D3E860087018E31A92601
:100B90008531810001302000B9070030BA3D3A08A4
:100BA000803A803C031DD62D39083B020318D92D0D
:100BB000DA2DC12D20002F082E06A00030082006B7
:100BC000A1002D082106A20022083106031DE92DEF
:100BD000EA2D242D34308600013087002330840034
:100BE000003085000A30A00016001A00A00BF42D7A
:100BF0003008AB002F08AC002330F1000A30F200BF
:100C00000030F3008F31AD27853120009614310874
:100C100008002000B400AA30860000308700203091
:100C20008400003085000A30F70016001A00F70B28
:100C3000152E2030F1000A30F2000030F3008F3121
:100C4000AD2786310330F8000830F7007730890B84
:100C5000272EF70B272EF80B272E0000A03086003A
:100C6000003087002A308400003085000A30F70009
:100C700016001A00F70B382E20003403031D412EF6
:100C8000422E4B2E0130B0005F30B1000230B20076
:100C90003730B300682E02303406031D502E512E1B
:100CA0005A2E0230B0003730B1000130B2005F3050
:100CB000B300682E03303406031D5F2E602E682EAD
:100CC0000130B0002F30B1000130B2002F30B3003E
:100CD0002A30F1000A30F2000030F3008F31AD27E6
:100CE00086310B30F8002630F7005E30890B762E07
:100CF000F70B762EF80B762E0800F601F21F812EE8
:100D0000822E892EF109F209F10A0319F20A013043
:100D1000F600F41F8C2E8D2E942EF309F409F30A9D
:100D20000319F40A0130F606F701F801710872049C
:100D300003199B2E9C2EC92E0130F500A62E0130E2
:100D4000F135F20D890BA02E0130F507F21FA92E07
:100D5000AA2E9F2E0130F735F80D890BAB2E7208A5
:100D60007402031DB52E71087302031CB82EB92E30
:100D7000BE2E7108F3027208F43B77140130F2368C
:100D8000F10C890BBF2E0130F502031DC82EC92EB0
:100D9000AA2E76080319CD2ECE2ED32EF709F809E8
:100DA000F70A0319F80A7808F2007708F10008003A
:100DB00020006608803AF80086307802031DE22E93
:100DC00041306502031CE52EE62E322F2000640818
:100DD000803AF80087307802031DF02E0930630254
:100DE000031CF32EF42EFE2E20006808031DF92E9E
:100DF000FA2E322F8F3160278631322F200064087F
:100E0000803AF80085307802031D082F1530630200
:100E1000031C0B2F0C2F1E2F20006408803AF800B3
:100E200086307802031D162FA43063020318192F91
:100E30001A2F1E2F8F3130278631322F2000640861
:100E4000803AF80080307802031D282FC8306302F2
:100E500003182B2F2C2F322F8F31482786318F31BB
:100E600048278631080020009811D301D401FF30B3
:100E700023008C000F1C3D2F3E2F3A2F0C08F10051
:100E8000F2017108F200F101200053087104F4002E
:100E900054087204F5007408D3007508D40098153E
:100EA0003430F100F230890B532FF10B532F200017
:100EB0009811FF3023008C000F1C5F2F602F5C2FD8
:100EC0002000530823000C04F10020005408F20015
:100ED0007108D3007208D40098150800FE34193444
:100EE0000134063404340034003400340034003457
:100EF000FE34193401340634043400340034003430
:100F000000340034FE341934033404340334003420
:100F1000043411340134FE341934013409340134F9
:100F200000340134FE341934013404340034003404
:100F3000FE3419340134053400340034FE341934DD
:100F40000434093400340034F6007603031DA92F5D
:100F5000AA2FAE2F083021009E00C12F0230760646
:100F6000031DB32FB42FB82F093021009E00C12FCD
:100F700003307606031DBD2FBE2FC12F0A3021007E
:100F80009E000B30F3006230890BC42FF30BC42F8B
:100F90000032210013141318CE2FCF2FCB2F0D08A2
:100FA000F5000C08F4007508F2007408F100080060
:100FB00023009012200012163E0043120C303D0018
:100FC000C600200092123E00C31215309D00200082
:100FD00092113E00C31114309B00200093133E0079
:100FE000CE1320009817230010120F178F17100828
:0E0FF000F0390A3890009F308D0090160800EE
:101D2000640080010131890B912E0034FE00120005
:101D30001E00FE0B972E0034FE3419340234093491
:101D400000340034FE308E31CD268E3123000C0855
:101D5000080009308E31DE268E31F5007508080046
:101D60000C30F30001308E31EF268E318030F600DA
:101D70000D308E31BD268E310800F90079088E3184
:101D8000DE268E31F70077087604F8007808F30035
:101D900079088E31EF268E310800F2007208230098
:101DA0008C000F1CD42ED52ED12E0B30F1006230BA
:101DB000890BD82EF10BD82E00320800F30020003A
:101DC00098137335FE3980388E31CD268E318E31A1
:101DD000A2268E31F4002000981774080800F40041
:101DE00074357E39F5002000981375088E31CD26A4
:101DF0008E3173088E31CD268E3120009817080061
:101E0000C430860000308700203084000030850018
:101E10000630F70016001A00F70B0A2F2030F100E9
:101E20000630F2000030F3008F31AD278F3108000B
:101E3000B4308600003087002030840000308500F8
:101E40000930F70016001A00F70B222F2030F1009E
:101E50000930F2000030F3008F31AD278F310800D8
:101E6000BD308600003087002030840000308500BF
:101E70000730F70016001A00F70B3A2F2030F10058
:101E80000730F2000030F3008F31AD278F310800AA
:101E9000D03086000030870020308400003085007C
:101EA0000630F70016001A00F70B522F2030F10011
:101EB0000630F2000030F3008F31AD278F3108007B
:101EC00069308600003087002030840000308500B3
:101ED0000630F70016001A00F70B6A2F2030F100C9
:101EE0000630F2000030F3008F31AD278F3108004B
:101EF000CA30860000308700203084000030850022
:101F00000630F70016001A00F70B822F2030F10080
:101F10000630F2000030F3008F31AD278F3108001A
:101F20002A30860001308700203084000030850090
:101F30000A30F70016001A00F70B9A2F20005308FA
:101F4000A8005408A9002030F1000A30F200003047
:101F5000F3008F31AD278F310800F501F601BF2F57
:101F600022009E1CB42FB52FB02F71087507860074
:101F7000870101089A000130F5070030F63D760828
:101F8000803AF4007308803A7402031DC92F720866
:101F90007502031CCC2FCD2FB02F0800FE3419344E
:101FA0000134063404340034003440340034403406
:101FB000FE34193401340A34043400340234003459
:101FC00000340034FE34193401340A34043400344B
:101FD0000134003400340034FE3419340134063442
:101FE000043400340034403400344034FE341934B6
:101FF0000134063404340034003400340034003436
:08200000523403343934033477
:020000040001F9
:0A000E008F3FFF3F9F3FFF3FFF3F82
:00000001FF
