:040000008031C02863
:100008007E14803100308600003087002E008F1E5D
:100018000E280F28BE2820005B08D63E86008701E0
:1000280022001908810001302000DB070030DC3D88
:1000380022009D1C2028212823281D121D1604306B
:1000480020005B065C04031D2A282B285A2821005F
:1000580059082000DE00210058082000DD00033088
:100068005E065D04031D39283A283F280630FB0048
:100078000030FC005A2802305D06043003195E0681
:10008800031D472848284D280C30FB000030FC0091
:100098005A2802305D06053003195E06031D5528EF
:1000A80056285A281A30FB000030FC005C08803AB9
:1000B800F0007C08803A7002031D64287B085B020C
:1000C800031C672868287B2806307B067C04031DF0
:1000D8006E286F287B282000DB01DC010130D90065
:1000E8000030DA000130D7000030D800BE282000E8
:1000F8005C08803AF0007C08803A7002031D86286C
:100108007B085B02031C89288A289D280C307B0603
:100118007C04031D902891289D282000DB01DC0128
:100128000130D9000030DA000230D7000030D800A2
:10013800BE2820005C08803AF0007C08803A7002F3
:10014800031DA8287B085B02031CAB28AC28BE282B
:100158001A307B067C04031DB228B328BE28200071
:10016800DB01DC010130D9000030DA000330D700B0
:100178000030D8007E1009008031C2288731FE2760
:100188008031FB008731FF278031FC009D308400DF
:100198008F308500653086000030870006308F314B
:1001A800972780319330840086308500A030860000
:1001B8000030870036308F3197278031FD3084003A
:1001C80086308500203086000130870028308F3146
:1001D80097278031513084000030850014308F31EA
:1001E80091278031D6308400003085001A308F3155
:1001F800912780317E1020008431922C07303E00F8
:10020800C3000730200092001F3021009800FC3006
:100218009A051A1201309D00131593178731862706
:10022800813121006508803AF90087307902031D81
:100238001F29D030640203182229232934290430C5
:1002480085316B2581310330FA000830F9007730A9
:10025800890B2C29F90B2C29FA0B2C2900009E2A32
:100268003E3086000130870035308400003085003C
:100278000A30F90016001A00F90B3E293530F10052
:100288000A30F2000030F30087314C278131033007
:10029800FA007030F9005C30890B5029F90B5029AD
:1002A800FA0B5029003201308631C9268131720893
:1002B8002000C0007108BF0002308631C926813194
:1002C80072082000C2007108C10003308631C926B7
:1002D800813172082000C4007108C3000230840014
:1002E80090308500003FF900013FFA007A08420289
:1002F800031D802979084102031883298429AD291F
:100308000030840090308500003FF900013FFA007A
:1003180044087A02031D9229430879020318952993
:100328009629AD290230840090308500003FF900FD
:10033800013FFA007A084002031DA42979083F0208
:100348000318A729A829AD29033085316B258131E8
:1003580012290230840090308500003FF900013FE7
:10036800FA007A084202031DBB29790841020318E2
:10037800BE29BF29E8290030840090308500003F5D
:10038800F900013FFA0044087A02031DCD29430809
:1003980079020318D029D129E82900308400903047
:1003A8008500003FF900013FFA0040087A02031D6A
:1003B800DF293F0879020318E229E329E8290230F6
:1003C80085316B25813112290230840090308500F7
:1003D800003FF900013FFA007A084202031DF6299E
:1003E800790841020318F929FA29232A02308400DE
:1003F80090308500003FF900013FFA007A08440276
:10040800031D082A7908430203180B2A0C2A232AF9
:100418000030840090308500003FF900013FFA0069
:1004280040087A02031D1A2A3F08790203181D2A78
:100438001E2A232A023085316B258131122900308A
:10044800840090308500003FF900013FFA0042081F
:100458007A02031D312A410879020318342A352A01
:100468005E2A0230840090308500003FF900013F89
:10047800FA007A084402031D432A79084302031844
:10048800462A472A5E2A0230840090308500003FC1
:10049800F900013FFA007A084002031D552A79083D
:1004A8003F020318582A592A5E2A013085316B25E4
:1004B800813112290030840090308500003FF90016
:1004C800013FFA0042087A02031D6C2A41087902AA
:1004D80003186F2A702A992A00308400903085000A
:1004E800003FF900013FFA0044087A02031D7E2A02
:1004F800430879020318812A822A992A0230840043
:1005080090308500003FF900013FFA007A08400268
:10051800031D902A79083F020318932A942A992ADE
:10052800013085316B2581311229033085316B25E6
:100538008131122908002000B001B101AA01AB01E4
:10054800AC01AD01343086000130870020308400D2
:10055800003085000A30FA0016001A00FA0BB02A9B
:100568000530F1000030F2007908093E8600870165
:100578007908083E840085010008183EF300FC3025
:10058800013DF4008531E025823172082000AF007A
:100598007108AE000530F1000030F20079080B3E1A
:1005A8008600870179080A3E840085010008183E04
:1005B800F300FC30013DF4008531E02582317208FA
:1005C8002000B1007108B0002F08803AFA0080308E
:1005D8007A02031DF12A6E302E020318F42AF52A36
:1005E800072B20002F08803AFA0080307A02031D7A
:1005F800FF2A5B302E02031C022B032B072B200043
:10060800AA01AB013D2B20002F08803AFA00803068
:100618007A02031D112B6F302E02031C142B152B8D
:10062800212B01302000AA000030AB002E089C3E90
:10063800AE00FF302F3DAF003D2B20002F08803A41
:10064800FA0080307A02031D2B2B5A302E02031831
:100658002E2B2F2B3D2B02302000AA000030AB00A0
:100668006430FA002E087A02AE002F090318890AAE
:10067800AF0020003108803AFA0080307A02031D6A
:10068800472B6E30300203184A2B4B2B5D2B200072
:100698003108803AFA0080307A02031D552B5B300E
:1006A8003002031C582B592B5D2B2000AC01AD01E7
:1006B800932B20003108803AFA0080307A02031D1B
:1006C800672B6F303002031C6A2B6B2B772B0130A2
:1006D8002000AC000030AD0030089C3EB000FF3078
:1006E800313DB100932B20003108803AFA00803068
:1006F8007A02031D812B5A3030020318842B852B74
:10070800932B02302000AC000030AD006430FA00BA
:1007180030087A02B00031090318890AB1002000B4
:100728002C08A6003008A7002A08A8002E08A9004F
:100738002030F1000A30F2000030F30087314C27F6
:10074800823108003E00B810200091140F30F200EA
:10075800013087316D2783318430F2002A308731A8
:100768006D278331F2012B3087316D278331F201F8
:10077800F20A2C3087316D2783314930F2002D3051
:1007880087316D2783312930F200113087316D2789
:1007980083314030F200153087316D2783310330C3
:1007A800F60014308F31C72783318030F2000A30C9
:1007B80087316D2783310730F2000D3087316D277F
:1007C80083312630F200093087316D2783318F312C
:1007D800BA2783310A308F31D72783312000BB00F5
:1007E800B701B801052C200037082D3E8600870187
:1007F8008F31AA278331810001302000B7070030EC
:10080800B83D3808803AA00080302002031D0E2C25
:100818003B083702031C112C122CF72B0230200046
:100828003B06031D182C192C3E2C04302D06031DE5
:100838001E2C1F2C3E2C2E08031D232C242C3E2C52
:100848008030F2000A3087316D278331F2010D3094
:1008580087316D2783319330F200093087316D2756
:1008680083312030F200093087316D2783318F3191
:10087800BA2783310A308F31D72783312000BB0054
:100888000130B9000030BA00572C200039082D3E3D
:10089800860087018F31AA2783318100013020002B
:1008A800B9070030BA3D3A08803AA00080302002EB
:1008B800031D602C3B083902031C632C642C492C53
:1008C80020002F082E06A00030082006A1002D08C1
:1008D8002106A20022083106031D732C742CAA2BB2
:1008E8002A308600013087002330840000308500DC
:1008F8000A30A00016001A00A00B7E2C3008AB00AE
:100908002F08AC002330F1000A30F2000030F30069
:1009180087314C27833120009614080020302000AE
:1009280091003E00B801200013133E004E13220030
:100938009E161E129D139D171D16200093163E002D
:10094800CE1222009F151E159C0144309B008B1768
:100958000B172E00991610303E00A60015303D00EA
:10096800CB008731252784318331A6238431203079
:1009780086000130870047308400003085000A3047
:100988002000C50016001A00C50BC62C20008C1AC2
:10099800CE2CCF2CDD2C0F3096008731E627843102
:1009A80087318627843120008C1EDB2CDC2CD72C49
:1009B800DE2C960159085A040319E32CE42C462D21
:1009C80057035804031DE92CEA2CED2CD901DA0150
:1009D800462D023057065804031DF32CF42C0A2D1B
:1009E800D901DA01210060082000E4002100610833
:1009F8002000E30064080319022D032D052D1614A9
:100A0800062D1610873186278431462D0330570668
:100A18005804031D102D112D462DD901DA01D630A9
:100A2800F90082319F22843121006B082000E20006
:100A380021006A082000E100210069082000E00088
:100A4800210068082000DF00210065082000D6008A
:100A5800210064082000D500210067082000D40088
:100A6800210066082000D30021006D082000D20074
:100A780021006C082000D10086313B2684318F315B
:100A8800E827843120005608803AC500873045029F
:100A9800031D502DD0305502031C532D542DCA2C44
:100AA8002000161515302000C6004B30C500BE309A
:100AB800890B5C2DC50B5C2DC60B5C2D00008131AC
:100AC8000221843120001611CA2C8031C028200050
:100AD800B400AA308600003087002030840000303F
:100AE80085000A30F70016001A00F70B772D203022
:100AF800F1000A30F2000030F30087314C278531CD
:100B08000330F8000830F7007730890B892DF70B90
:100B1800892DF80B892D0000A03086000030870051
:100B28002A308400003085000A30F70016001A00C9
:100B3800F70B9A2D20003403031DA32DA42DAD2DF2
:100B48000130B0005030B1000230B2003230B30092
:100B5800CA2D02303406031DB22DB32DBC2D023030
:100B6800B0003230B1000130B2005030B300CA2DAD
:100B780003303406031DC12DC22DCA2D0130B0002B
:100B88003230B1000130B2003230B3002A30F10007
:100B98000A30F2000030F30087314C2785310930E4
:100BA800F800EE30F700AF30890BD82DF70BD82DB1
:100BB800F80BD82D00000800F601F21FE42DE52DF2
:100BC800EC2DF109F209F10A0319F20A0130F600D5
:100BD800F41FEF2DF02DF72DF309F409F30A03198B
:100BE800F40A0130F606F701F801710872040319D6
:100BF800FE2DFF2D2C2E0130F500092E0130F13588
:100C0800F20D890B032E0130F507F21F0C2E0D2E65
:100C1800022E0130F735F80D890B0E2E720874027A
:100C2800031D182E71087302031C1B2E1C2E212E67
:100C38007108F3027208F43B77140130F236F10CB4
:100C4800890B222E0130F502031D2B2E2C2E0D2E82
:100C580076080319302E312E362EF709F809F70ACF
:100C68000319F80A7808F2007708F1000800200054
:100C78006208803AF80086307802031D452E41301C
:100C88006102031C482E492E922E20006008803AEB
:100C9800F80087307802031D532E09305F02031CC9
:100CA800562E572E612E20006408031D5C2E5D2EE3
:100CB800922E87319E278631922E20006008803A36
:100CC800F80085307802031D6B2E15305F02031C77
:100CD8006E2E6F2E812E20006008803AF800863034
:100CE8007802031D792EA4305F0203187C2E7D2E16
:100CF800812E8731CE278631922E20006008803AD7
:100D0800F80080307802031D8B2EC8305F0203186C
:100D18008E2E8F2E922E8731B62786310800FE340C
:100D280019340134063404340034003400340034F7
:100D38000034FE34193401340634043400340034E9
:100D4800003400340034FE341934033404340334DA
:100D58000034043411340134FE34193401340934B4
:100D6800013400340134FE341934013404340034BD
:100D78000034FE3419340134053400340034FE34B0
:100D880019340434093400340034F6007603031DA2
:100D9800CE2ECF2ED32E083021009E00E62E023014
:100DA8007606031DD82ED92EDD2E093021009E008F
:100DB800E62E03307606031DE22EE32EE62E0A30D9
:100DC80021009E000B30F3006230890BE92EF30BF3
:100DD800E92E0032210013141318F32EF42EF02EEE
:100DE8000D08F5000C08F4007508F2007408F1000D
:100DF8000800FE3419340134063404340034003455
:100E0800403400344034FE34193401340A34043494
:100E180000340134003400340034FE341934013411
:100E28000634043400340034403400344034FE3492
:100E380019340134063404340034003400340034E6
:100E4800003423009012200012163E0043120C308A
:100E58003D00C600200092123E00C31215309D00CE
:100E6800200092113E00C31114309B002000931300
:100E78003E00CE1320009817230010120F178F176B
:100E88001008F0390A3890009F308D00901608003D
:100E9800F501F6015E2F22009E1C532F542F4F2F71
:100EA800710875078600870101089A000130F50767
:100EB8000030F63D7608803AF4007308803A7402F0
:100EC800031D682F72087502031C6B2F6C2F4F2FA0
:100ED8000800F40074357E39F50020009813750871
:100EE8008F31B127873172088F31B12787312000C0
:100EF80098170B30F3006230890B802FF30B802F8B
:100F080000320800CA308600003087002030840094
:100F1800003085000630F70016001A00F70B902FF6
:100F28002030F1000630F2000030F30087314C2702
:100F38008731080065308600003087002030840043
:100F4800003085000630F70016001A00F70BA82FAE
:100F58002030F1000630F2000030F30087314C27D2
:100F680087310800D03086000030870020308400A8
:100F7800003085000630F70016001A00F70BC02F66
:100F88002030F1000630F2000030F30087314C27A2
:100F980087310800BD30860000308700203084008B
:100FA800003085000730F70016001A00F70BD82F1D
:100FB8002030F1000730F2000030F30087314C2771
:100FC80087310800B4308600003087002030840064
:100FD800003085000930F70016001A00F70BF02FD3
:100FE8002030F1000930F2000030F30087314C273F
:080FF800873108000A340034BF
:101F2200640080010131890B922F0034FE001200FF
:101F32001E00FE0B982F0034FE341934023409348B
:101F420000340034FE308F31B1278F3123000C086A
:101F5200080009308F31D7278F31F4007408080048
:101F6200F100710823008C000F1CB82FB92FB52F78
:101F720008000C30F200013087316D278F3180303C
:101F8200F6000D308F31C7278F310800F90079082C
:101F92008F31D7278F31F70077087604F800780859
:101FA200F200790887316D278F310800F200200096
:101FB20098137235FE3980388F31B1278F318F31C6
:101FC200A3278F31F3002000981773080800C4304C
:101FD2008600003087002030840000308500063003
:101FE200F70016001A00F70BF22F2030F10006302E
:101FF200F2000030F30087314C278F310800523451
:06200200033439340334FD
:020000040001F9
:0A000E008F3FFF3F9F3FFF3FFF3F82
:00000001FF
