:040000008031C32860
:100008007E1480312E008F1E0A280B28C12820005C
:100018006508A03E8600870122001908810001308A
:100028002000E5070030E63D22009D1C1C281D2805
:100038001F281D121D160430200065066604031DC6
:10004800262827285C2821002308F000F1017008E1
:10005800F100F001220870072000E7000030713D30
:10006800E800033068066704031D3B283C28412844
:100078000630F9000030FA005C28023067060430C8
:1000880003196806031D49284A284F280C30F9002F
:100098000030FA005C28023067060530031968064C
:1000A800031D572858285C281A30F9000030FA0038
:1000B8006608803AF0007A08803A7002031D6628C4
:1000C80079086502031C69286A287D2806307906A4
:1000D8007A04031D702871287D282000E501E601B7
:1000E8000130E3000030E4000130E1000030E200BC
:1000F800C12820006608803AF0007A08803A700229
:10010800031D882879086502031C8B288C289F28E2
:100118000C3079067A04031D922893289F28200022
:10012800E501E6010130E3000030E4000230E100BF
:100138000030E200C12820006608803AF0007A0802
:10014800803A7002031DAA2879086502031CAD28AD
:10015800AE28C1281A3079067A04031DB428B528B8
:10016800C1282000E501E6010130E3000030E40089
:100178000330E1000030E200C1287E100900803120
:10018800C528853137258031F900853138258031FA
:10019800FA00CD308400843085002030860000309D
:1001A8008700243085312B2580315F308400003072
:1001B80085000A30853131258031A0308400003037
:1001C80085001A308531312580317E102000833139
:1001D8007D2B07303E00C3000730200092001F30FF
:1001E80021009800FC309A051A1201309D00131561
:1001F80093173B30840085308500003F2000D000F5
:10020800013FD10001308431A524803120005108FC
:100218007402031D112950087302031814291529A3
:10022800482903308431A524803139308400853051
:100238008500003F2000D000013FD1007408510222
:10024800031D28297308500203182B292C29482933
:100258003B30840085308500003FD000013FD1004D
:1002680002308431A5248031200051087402031D16
:100278003F295008730203184229432948290330AB
:10028800843160248031FD283B308400853085002E
:10029800003FD000013FD10001308431A5248031D6
:1002A800200051087402031D5B29500873020318CB
:1002B8005E295F29922903308431A52480313930A1
:1002C800840085308500003F2000D000013FD10028
:1002D80074085102031D7229730850020318752906
:1002E8007629922902308431A5248031393084005E
:1002F80085308500003F2000D000013FD100740800
:100308005102031D89297308500203188C298D296D
:1003180092290230843160248031FD283B308400EA
:1003280085308500003FD000013FD1000130843185
:10033800A5248031200051087402031DA529500806
:1003480073020318A829A929DC293B3084008530C9
:100358008500003FD000013FD10003308431A5243F
:100368008031200051087402031DBC295008730213
:100378000318BF29C029DC2902308431A524803123
:100388003930840085308500003F2000D000013FCF
:10039800D10074085102031DD329730850020318B1
:1003A800D629D729DC290230843160248031FD2800
:1003B80001308431A52480313930840085308500AE
:1003C800003F2000D000013FD10074085102031DF6
:1003D800EF29730850020318F229F329262A3B3023
:1003E800840085308500003FD000013FD1000330F4
:1003F8008431A5248031200051087402031D062A87
:10040800500873020318092A0A2A262A3B30840056
:1004180085308500003FD000013FD1000230843193
:10042800A5248031200051087402031D1D2A50089C
:1004380073020318202A212A262A013084316024D5
:100448008031FD2801308431A52480313930840081
:1004580085308500003F2000D000013FD10074089E
:100468005102031D392A7308500203183C2A3D2AF9
:10047800702A03308431A5248031393084008530D6
:100488008500003F2000D000013FD10074085102D0
:10049800031D502A730850020318532A542A702A3D
:1004A8003B30840085308500003FD000013FD100FB
:1004B80002308431A5248031200051087402031DC4
:1004C800672A5008730203186A2A6B2A702A0130B7
:1004D800843160248031FD280430843160248031E7
:1004E800FD2808002000DA01DB01D401D501D6017E
:1004F800D70134308600003087004A30840000304D
:1005080085000A30C90016001A00C90B872A053071
:10051800F3000030F4004808093E860087014808C7
:10052800083E840085010008183EF500FC30013DB6
:10053800F60084310424823174082000D90073083D
:10054800D8000530F3000030F40048080B3E860060
:10055800870148080A3E840085010008183EF50016
:10056800FC30013DF60084310424823174082000F7
:10057800DB007308DA005908803AC9008030490264
:10058800031DC82A6E3058020318CB2ACC2ADE2A4B
:1005980020005908803AC90080304902031DD62A34
:1005A8005B305802031CD92ADA2ADE2A2000D4013B
:1005B800D501142B20005908803AC900803049021F
:1005C800031DE82A6F305802031CEB2AEC2AF82A8C
:1005D80001302000D4000030D50058089C3ED800D7
:1005E800FF30593DD900142B20005908803AC90022
:1005F80080304902031D022B5A3058020318052B7C
:10060800062B142B02302000D4000030D5006430B3
:10061800C90058084902D80059090318890AD9009D
:1006280020005B08803AC90080304902031D1E2B58
:100638006E305A020318212B222B342B20005B0822
:10064800803AC90080304902031D2C2B5B305A02C6
:10065800031C2F2B302B342B2000D601D7016A2BFB
:1006680020005B08803AC90080304902031D3E2BF8
:100678006F305A02031C412B422B4E2B01302000B5
:10068800D6000030D7005A089C3EDA00FF305B3DA8
:10069800DB006A2B20005B08803AC90080304902E1
:1006A800031D582B5A305A0203185B2B5C2B6A2BFC
:1006B80002302000D6000030D7006430C9005A0844
:1006C8004902DA005B090318890ADB002000560892
:1006D800D0005A08D1005408D2005808D3004A3034
:1006E800F3000A30F4000030F5008431F12482313F
:1006F80008002030200091003E00B80122009E161C
:100708001E129D171D16200093163E00CE122200C1
:100718009F151E159C0144309B008B170B172E004C
:10072800991610303E00A60015303D00CB002A3047
:10073800860000308700BA308400003085000A3017
:100748002000DC0016001A00DC0BA62B20008C1AF7
:10075800AE2BAF2BBA2B0F30960085311225833183
:1007680020008C1EB82BB92BB42BBB2B9601630829
:1007780064040319C02BC12BE42B61036204031D1D
:10078800C62BC72BCA2BE301E401E42B0230610618
:100798006204031DD02BD12BD22BC72B033061064B
:1007A8006204031DD82BD92BE42BE301E401A0300C
:1007B800C800823176228331853112258331E42BBA
:1007C800210030082000DC00DD015C08DD00DC01D0
:1007D80021002F0820005C07DF005D0803185D0A70
:1007E800E000D0305F06073003196006031DFD2BBB
:1007F800FE2BAA2B8031ED208331AA2B8031C32810
:100808002000C501F41F092C0A2C112CF309F40946
:10081800F30A0319F40A0130C500F61F142C152C2D
:100828001C2CF509F609F50A0319F60A0130C50664
:10083800C601C701730874040319232C242C512CF6
:100848000130C4002E2C0130F335F40D890B282C0F
:100858000130C407F41F312C322C272C0130C63547
:10086800C70D890B332C74087602031D3D2C7308C1
:100878007502031C402C412C462C7308F5027408A1
:10088800F63B46140130F436F30C890B472C013043
:10089800C402031D502C512C322C45080319552C29
:1008A800562C5B2CC609C709C60A0319C70A47088C
:1008B800F4004608F30008002000CF00203086002E
:1008C8000030870045308400003085000A30C400BD
:1008D80016001A00C40B6C2C4F03031D742C752CC6
:1008E8007E2C0130CB003230CC000130CD000A30F4
:1008F800CE009B2C02304F06031D832C842C8D2C9C
:100908000130CB000A30CC000130CD003230CE00AF
:100918009B2C03304F06031D922C932C9B2C0130EB
:10092800CB003230CC000130CD003230CE00453023
:10093800F3000A30F4000030F5008431F1248431EA
:100948000800F7007703031DAA2CAB2CAF2C083046
:1009580021009E00C22C02307706031DB42CB52C52
:10096800B92C093021009E00C22C03307706031DE4
:10097800BE2CBF2CC22C0A3021009E00210013146B
:100988000D08F6000C08F5007608F4007508F30069
:100998000800FE34193401340634043400340034B9
:1009A800003400340034FE3419340134063404347D
:1009B80000340034403400344034FE3419340134F7
:1009C8000634043400340034403400344034FE34F7
:1009D80019340134053400340034F701F801032DCB
:1009E80022009E1CF82CF92CF42C7308770786003B
:1009F800870101089A000130F7070030F83D7808B0
:100A0800803AF6007508803A7602031D0D2D7408A9
:100A18007702031C102D112DF42C08003E3086009F
:100A28000030870045308400003085000630200003
:100A3800C40016001A00C40B1D2D4530F300063003
:100A4800F4000030F5008431F12485310800FE00FF
:100A580012001E00FE0B2C2D0034640080010131B1
:100A6800890B322D00340A3400345234033458349C
:020A7800023446
:020000040001F9
:0A000E008F3FFF3F9F3FFF3FFF3F82
:00000001FF
