:040000008031B9286A
:100008007E1480312E008F1E0A280B28B728200066
:100018002808323E86008701220019088100013035
:100028002000A8070030A93D22009D1C1C281D287F
:100038001F281D121D160430200028062904031D40
:100048002628272852283508AB003408AA00033090
:100058002B062A04031D3128322837280630FB00D6
:100068000030FC00522802302A06043003192B06FF
:10007800031D3F28402845280C30FB000030FC00B9
:10008800522802302A06053003192B06031D4D2875
:100098004E2852281A30FB000030FC002908803A0C
:1000A800F0007C08803A7002031D5C287B08280257
:1000B800031C5F286028732806307B067C04031D18
:1000C8006628672873282000A801A9010130A60026
:1000D8000030A7000130A4000030A500B728200098
:1000E8002908803AF0007C08803A7002031D7E28B7
:1000F8007B082802031C8128822895280C307B065F
:100108007C04031D8828892895282000A801A901B6
:100118000130A6000030A7000230A4000030A5007E
:10012800B72820002908803AF0007C08803A70023D
:10013800031DA0287B082802031CA328A428B7288D
:100148001A307B067C04031DAA28AB28B728200098
:10015800A801A9010130A6000030A7000330A400BF
:100168000030A500B7287E1009008031BB288631F1
:100178002E268031FB0086312F268031FC0020306E
:10018800840085308500A0308600003087003D302F
:1001980086312226803120308400003085002C30C2
:1001A8008631282680317E1020008331702B07305D
:1001B8003E00C3000730200092001F302100980045
:1001C800FC309A051A1201309D001315931732302E
:1001D800840086308500003FF900013FFA000130B5
:1001E80085315D2580317A087202031DFD28790862
:1001F80071020318002901293229033085315D2550
:1002080080313030840086308500003FF900013F9E
:10021800FA0072087A02031D13297108790203187B
:100228001629172932293230840086308500003F8C
:10023800F900013FFA00023085315D2580317A08E6
:100248007202031D29297908710203182C292D2906
:10025800322903308431CF248031522A323084004D
:1002680086308500003FF900013FFA0001308531F2
:100278005D2580317A087202031D442979087102CC
:100288000318472948297929033085315D258031AC
:100298003030840086308500003FF900013FFA00C5
:1002A80072087A02031D5A297108790203185D2918
:1002B8005E297929023085315D258031303084000E
:1002C80086308500003FF900013FFA0072087A0283
:1002D800031D702971087902031873297429792973
:1002E80002308431CF248031522A32308400863063
:1002F8008500003FF900013FFA00013085315D2596
:1003080080317A087202031D8B297908710203185B
:100318008E298F29C0293230840086308500003F1D
:10032800F900013FFA00033085315D2580317A08F4
:100338007202031DA129790871020318A429A529AD
:10034800C029023085315D25803130308400863007
:100358008500003FF900013FFA0072087A02031D88
:10036800B729710879020318BA29BB29C0290230B4
:100378008431CF248031522A013085315D25803186
:100388003030840086308500003FF900013FFA00D4
:1003980072087A02031DD229710879020318D52937
:1003A800D629072A3230840086308500003FF900BC
:1003B800013FFA00033085315D2580317A087202E9
:1003C800031DE829790871020318EB29EC29072A8B
:1003D8003230840086308500003FF900013FFA0082
:1003E800023085315D2580317A087202031DFE29AD
:1003F800790871020318012A022A072A0130843178
:10040800CF248031522A013085315D25803130304A
:10041800840086308500003FF900013FFA00720829
:100428007A02031D192A7108790203181C2A1D2A49
:100438004E2A033085315D25803130308400863086
:100448008500003FF900013FFA0072087A02031D97
:100458002F2A710879020318322A332A4E2A323099
:10046800840086308500003FF900013FFA00023021
:1004780085315D2580317A087202031D452A790885
:1004880071020318482A492A4E2A01308431CF24A0
:100498008031522A04308431CF2480318531AA2515
:1004A800803120004108803AF90087307902031D25
:1004B8005F2AD03042020318622A632A642A682A13
:1004C800200042084108EB2808002000DC01DD017B
:1004D800D601D701D801D901AA308600003087009B
:1004E8004C308400003085000A30FA0016001A00EB
:1004F800FA0B7A2A0530F1000030F2007908093E3B
:10050800860087017908083E840085010008183EA6
:10051800F300FC30013DF40084311B248231720861
:100528002000DB007108DA000530F1000030F2002D
:1005380079080B3E8600870179080A3E8400850108
:100548000008183EF300FC30013DF40084311B2400
:10055800823172082000DD007108DC005B08803AF7
:10056800FA0080307A02031DBB2A6E305A02031843
:10057800BE2ABF2AD12A20005B08803AFA008030C0
:100588007A02031DC92A5B305A02031CCC2ACD2AE1
:10059800D12A2000D601D701072B20005B08803A1A
:1005A800FA0080307A02031DDB2A6F305A02031CDE
:1005B800DE2ADF2AEB2A01302000D6000030D700DF
:1005C8005A089C3EDA00FF305B3DDB00072B200019
:1005D8005B08803AFA0080307A02031DF52A5A3007
:1005E8005A020318F82AF92A072B02302000D600ED
:1005F8000030D7006430FA005A087A02DA005B0942
:100608000318890ADB0020005D08803AFA00803070
:100618007A02031D112B6E305C020318142B152B64
:10062800272B20005D08803AFA0080307A02031DEB
:100638001F2B5B305C02031C222B232B272B200053
:10064800D801D9015D2B20005D08803AFA0080307E
:100658007A02031D312B6F305C02031C342B352BBF
:10066800412B01302000D8000030D9005C089C3EA6
:10067800DC00FF305D3DDD005D2B20005D08803A29
:10068800FA0080307A02031D4B2B5A305C020318A3
:100698004E2B4F2B5D2B02302000D8000030D900A4
:1006A8006430FA005C087A02DC005D090318890AE4
:1006B800DD0020005808D2005C08D3005608D4009A
:1006C8005A08D5004C30F1000A30F2000030F3002F
:1006D80085318925823108002030200091003E00B4
:1006E800B801200013133E004E1322009E161E125E
:1006F8009D139D171D16200093163E00CE12220052
:100708009F151E159C0144309B008B170B172E005C
:10071800991610303E00A60015303D00CB00A030E1
:1007280086000030870060308400003085000A3081
:100738002000DE0016001A00DE0B9E2B20008C1A0B
:10074800A62BA72BB22B0F3096008531AA25833113
:1007580020008C1EB02BB12BAC2BB32B9601260896
:1007680027040319B82BB92BF52B24032504031DE3
:10077800BE2BBF2BC22BA601A701F52B02302406E6
:100788002504031DC82BC92BD32BA601A7013C08A0
:10079800B1003D08B0008531AA258331F52B03301F
:1007A80024062504031DD92BDA2BF52BA601A70156
:1007B8003230F90082316922833120004708AF00C6
:1007C8004608AE004508AD004408AC004108A30047
:1007D8004208A20084317624833186310A26833187
:1007E800F52B20002308803ADE0087305E02031DC7
:1007F800FF2BD0302202031C022C032CA22B20003A
:10080800161529302000DF009630DE007F30890B76
:100818000B2CDE0B0B2CDF0B0B2C2000220880315D
:10082800DB20833120001611A22B8031B928F60174
:10083800F21F1F2C202C272CF109F209F10A0319A9
:10084800F20A0130F600F41F2A2C2B2C322CF30963
:10085800F409F30A0319F40A0130F606F701F8015E
:10086800710872040319392C3A2C672C0130F500F1
:10087800442C0130F135F20D890B3E2C0130F5077F
:10088800F21F472C482C3D2C0130F735F80D890B09
:10089800492C72087402031D532C71087302031C3F
:1008A800562C572C5C2C7108F3027208F43B771411
:1008B8000130F236F10C890B5D2C0130F502031D75
:1008C800662C672C482C760803196B2C6C2C712C21
:1008D800F709F809F70A0319F80A7808F2007708FF
:1008E800F100080020002F08803AF80086307802CE
:1008F800031D802C41302E02031C832C842CCE2C0B
:1009080020002D08803AF80087307802031D8E2CCD
:1009180009302C02031C912C922C9C2C20003108AD
:10092800031D972C982CCE2C8531C2258431CE2CD2
:1009380020002D08803AF80085307802031DA62C87
:1009480015302C02031CA92CAA2CBC2C20002D0825
:10095800803AF80086307802031DB42CA4302C02AB
:100968000318B72CB82CBC2C8531F2258431CE2C39
:1009780020002D08803AF80080307802031DC62C2C
:10098800C8302C020318C92CCA2CCE2C8531DA2584
:100998008431CE2C08002000D600B4308600003008
:1009A80087004C308400003085000A30F7001600BC
:1009B8001A00F70BDB2C5603031DE32CE42CED2C5B
:1009C8000130D2004630D3000130D4001430D500B5
:1009D8000A2D02305606031DF22CF32CFC2C013094
:1009E800D2001430D3000130D4004630D5000A2D8F
:1009F80003305606031D012D022D0A2D0130D200A9
:100A08004630D3000130D4004630D5004C30F100D8
:100A18000A30F2000030F300853189258431033033
:100A2800F8000830F7007730890B182DF70B182DD0
:100A3800F80B182D00000800FE3419340134063470
:100A4800043400340034403400344034FE34193463
:100A58000134063404340034003440340034403463
:100A6800FE341934013406340434003400340034BC
:100A780000340034FE3419340134093401340034AC
:100A88000134FE3419340134043400340034FE34A3
:100A980019340134053400340034FE341934043474
:100AA800093400340034FE34193402340934003473
:100AB8000034F5007503031D622D632D672D083082
:100AC80021009E007A2D02307506031D6C2D6D2DB8
:100AD800712D093021009E007A2D03307506031D03
:100AE800762D772D7A2D0A3021009E0021001314CF
:100AF80013187F2D802D7C2D0D08F4000C08F300B1
:100B08007408F2007308F1000800F501F6019B2D46
:100B180022009E1C902D912D8C2D71087507860042
:100B2800870101089A000130F5070030F63D760884
:100B3800803AF4007308803A7402031DA52D7208E8
:100B48007502031CA82DA92D8C2D0800CB3086001A
:100B5800003087004C308400003085000630F700F4
:100B680016001A00F70BB42D4C30F1000630F200D5
:100B78000030F3008531892585310800D73086009B
:100B8800003087004C308400003085000630F700C4
:100B980016001A00F70BCC2D4C30F1000630F2008D
:100BA8000030F3008531892585310800D130860071
:100BB800003087004C308400003085000630F70094
:100BC80016001A00F70BE42D4C30F1000630F20045
:100BD8000030F3008531892585310800BE30860054
:100BE800003087004C308400003085000730F70063
:100BF80016001A00F70BFC2D4C30F1000730F200FC
:100C08000030F3008531892585310800C53086001C
:100C1800003087004C308400003085000630F70033
:100C280016001A00F70B142E4C30F1000630F200B3
:100C38000030F3008531892586310800FE00120056
:100C48001E00FE0B232E0034640080010131890B45
:100C5800292E00340A340034523403345834023410
:020000040001F9
:0A000E008F3FFF3F9F3FFF3FFF3F82
:00000001FF
