:08000000803102288731FD2F39
:100D9A00FE308631F326863123000C08080009301C
:100DAA008631DB268631F30073080800F2007235BB
:100DBA00FE3980388631F32686318631CD26863152
:100DCA000800F30073357E39F40074088631F3267F
:100DDA00863172088631F32686310800F100200038
:100DEA009813710823008C000F1CFC2EFD2EF92E7F
:100DFA00200098170B30F0006230890B022FF00B9D
:100E0A00022F0032080023009A12200012163E0018
:100E1A0043120C303D00C600200092123E00C3125D
:100E2A0015309D00200092113E00C31114309B0022
:100E3A00200093133E00CE132000981723001012AF
:100E4A000F138F171008F0390A3890009F308D0061
:100E5A0090163E00B812200091160F30F2000130B1
:100E6A008631E62687318430F2002A308631E6263A
:100E7A008731F2012B308631E6268731F201F20AF8
:100E8A002C308631E62687314930F2002D30863102
:100E9A00E62687312930F20011308631E62687317D
:100EAA004030F20015308631E6268731143086311B
:100EBA00DB2687312000AA002A080838F2001430FD
:100ECA008631E62687312630F20009308631E62659
:100EDA0087310C30F20001308631E62687318730BF
:100EEA00F2000D308631E62687310A308631DB265C
:100EFA008731F500F60175082000AB007608AC00D2
:100F0A00AD01AE01962F20002D08203E86008701F4
:100F1A008631D4268731810001302000AD070030A8
:100F2A00AE3D2E08803AF5002C08803A7502031D62
:100F3A00A02F2B082D02031CA32FA42F882F0630C5
:100F4A008631DB2687310C308631DB2687319330B8
:100F5A00F20009308631E62687312030F200093066
:100F6A008631E62687310C30F20001308631E626DA
:100F7A0087318030F2000D308631E62687310C3019
:100F8A00F20001308631E62687318030F2000D30DA
:100F9A008631E62687310A308631DB268731F5002D
:100FAA00F60175082000AB007608AC00AF01B0016D
:100FBA00EC2F20002F08203E860087018631D42698
:100FCA008731810001302000AF070030B03D300882
:100FDA00803AF5002C08803A7502031DF62F2B087B
:100FEA002F02031CF92FFA2FDE2FFA2F8031022845
:060FFA0020008731082FE2
:020000040001F9
:0A000E008F3FFF3F9F3FFF3FFF3F82
:00000001FF
